{
  "address": "0xE478912C9Faa893F63F0a66Fc299A3755591B6F2",
  "abi": [
    {
      "inputs": [],
      "stateMutability": "nonpayable",
      "type": "constructor"
    },
    {
      "inputs": [],
      "name": "ECDSAInvalidSignature",
      "type": "error"
    },
    {
      "inputs": [
        {
          "internalType": "uint256",
          "name": "length",
          "type": "uint256"
        }
      ],
      "name": "ECDSAInvalidSignatureLength",
      "type": "error"
    },
    {
      "inputs": [
        {
          "internalType": "bytes32",
          "name": "s",
          "type": "bytes32"
        }
      ],
      "name": "ECDSAInvalidSignatureS",
      "type": "error"
    },
    {
      "inputs": [],
      "name": "InvalidShortString",
      "type": "error"
    },
    {
      "inputs": [],
      "name": "ReentrancyGuardReentrantCall",
      "type": "error"
    },
    {
      "inputs": [
        {
          "internalType": "string",
          "name": "str",
          "type": "string"
        }
      ],
      "name": "StringTooLong",
      "type": "error"
    },
    {
      "anonymous": false,
      "inputs": [
        {
          "indexed": false,
          "internalType": "uint256",
          "name": "refundCount",
          "type": "uint256"
        }
      ],
      "name": "AuctionCancelled",
      "type": "event"
    },
    {
      "anonymous": false,
      "inputs": [
        {
          "indexed": true,
          "internalType": "address",
          "name": "supplier",
          "type": "address"
        },
        {
          "indexed": false,
          "internalType": "bytes32",
          "name": "commitHash",
          "type": "bytes32"
        },
        {
          "indexed": false,
          "internalType": "string",
          "name": "storageRoot",
          "type": "string"
        }
      ],
      "name": "BidCommitted",
      "type": "event"
    },
    {
      "anonymous": false,
      "inputs": [
        {
          "indexed": true,
          "internalType": "address",
          "name": "supplier",
          "type": "address"
        },
        {
          "indexed": false,
          "internalType": "string",
          "name": "reason",
          "type": "string"
        }
      ],
      "name": "BidDisqualified",
      "type": "event"
    },
    {
      "anonymous": false,
      "inputs": [
        {
          "indexed": true,
          "internalType": "address",
          "name": "supplier",
          "type": "address"
        },
        {
          "indexed": false,
          "internalType": "uint256",
          "name": "price",
          "type": "uint256"
        }
      ],
      "name": "BidRevealed",
      "type": "event"
    },
    {
      "anonymous": false,
      "inputs": [
        {
          "indexed": true,
          "internalType": "address",
          "name": "bidder",
          "type": "address"
        }
      ],
      "name": "ConflictAttestationSubmitted",
      "type": "event"
    },
    {
      "anonymous": false,
      "inputs": [
        {
          "indexed": true,
          "internalType": "address",
          "name": "creator",
          "type": "address"
        },
        {
          "indexed": false,
          "internalType": "uint256",
          "name": "amount",
          "type": "uint256"
        }
      ],
      "name": "CreatorBondReleased",
      "type": "event"
    },
    {
      "anonymous": false,
      "inputs": [
        {
          "indexed": true,
          "internalType": "address",
          "name": "victim",
          "type": "address"
        },
        {
          "indexed": false,
          "internalType": "uint256",
          "name": "victimShare",
          "type": "uint256"
        },
        {
          "indexed": false,
          "internalType": "uint256",
          "name": "burned",
          "type": "uint256"
        }
      ],
      "name": "CreatorBondSlashed",
      "type": "event"
    },
    {
      "anonymous": false,
      "inputs": [
        {
          "indexed": true,
          "internalType": "address",
          "name": "oracle",
          "type": "address"
        },
        {
          "indexed": false,
          "internalType": "uint256",
          "name": "timestamp",
          "type": "uint256"
        }
      ],
      "name": "DeliveryConfirmed",
      "type": "event"
    },
    {
      "anonymous": false,
      "inputs": [
        {
          "indexed": true,
          "internalType": "address",
          "name": "winner",
          "type": "address"
        },
        {
          "indexed": false,
          "internalType": "uint256",
          "name": "timestamp",
          "type": "uint256"
        }
      ],
      "name": "DeliveryDisputed",
      "type": "event"
    },
    {
      "anonymous": false,
      "inputs": [
        {
          "indexed": true,
          "internalType": "address",
          "name": "supplier",
          "type": "address"
        },
        {
          "indexed": false,
          "internalType": "uint256",
          "name": "amount",
          "type": "uint256"
        }
      ],
      "name": "DepositReturned",
      "type": "event"
    },
    {
      "anonymous": false,
      "inputs": [
        {
          "indexed": true,
          "internalType": "address",
          "name": "supplier",
          "type": "address"
        },
        {
          "indexed": false,
          "internalType": "uint256",
          "name": "amount",
          "type": "uint256"
        },
        {
          "indexed": false,
          "internalType": "address",
          "name": "recipient",
          "type": "address"
        }
      ],
      "name": "DepositSlashed",
      "type": "event"
    },
    {
      "anonymous": false,
      "inputs": [],
      "name": "EIP712DomainChanged",
      "type": "event"
    },
    {
      "anonymous": false,
      "inputs": [
        {
          "indexed": true,
          "internalType": "address",
          "name": "secondBidder",
          "type": "address"
        },
        {
          "indexed": false,
          "internalType": "uint256",
          "name": "amount",
          "type": "uint256"
        }
      ],
      "name": "FallbackActivated",
      "type": "event"
    },
    {
      "anonymous": false,
      "inputs": [
        {
          "indexed": false,
          "internalType": "uint256",
          "name": "timestamp",
          "type": "uint256"
        }
      ],
      "name": "OracleTimedOut",
      "type": "event"
    },
    {
      "anonymous": false,
      "inputs": [
        {
          "indexed": true,
          "internalType": "address",
          "name": "newOracle",
          "type": "address"
        }
      ],
      "name": "OracleUpdated",
      "type": "event"
    },
    {
      "anonymous": false,
      "inputs": [
        {
          "indexed": true,
          "internalType": "address",
          "name": "winner",
          "type": "address"
        },
        {
          "indexed": false,
          "internalType": "uint256",
          "name": "amount",
          "type": "uint256"
        }
      ],
      "name": "PaymentSubmitted",
      "type": "event"
    },
    {
      "anonymous": false,
      "inputs": [
        {
          "indexed": false,
          "internalType": "enum ShadowBidVault.Phase",
          "name": "newPhase",
          "type": "uint8"
        }
      ],
      "name": "PhaseChanged",
      "type": "event"
    },
    {
      "anonymous": false,
      "inputs": [
        {
          "indexed": true,
          "internalType": "address",
          "name": "secondBidder",
          "type": "address"
        },
        {
          "indexed": false,
          "internalType": "uint256",
          "name": "price",
          "type": "uint256"
        }
      ],
      "name": "SecondBidderTracked",
      "type": "event"
    },
    {
      "anonymous": false,
      "inputs": [
        {
          "indexed": true,
          "internalType": "address",
          "name": "winner",
          "type": "address"
        },
        {
          "indexed": false,
          "internalType": "uint256",
          "name": "price",
          "type": "uint256"
        },
        {
          "indexed": false,
          "internalType": "uint256",
          "name": "totalBids",
          "type": "uint256"
        }
      ],
      "name": "WinnerSelected",
      "type": "event"
    },
    {
      "inputs": [
        {
          "internalType": "uint256",
          "name": "",
          "type": "uint256"
        }
      ],
      "name": "allowedJurisdictions",
      "outputs": [
        {
          "internalType": "string",
          "name": "",
          "type": "string"
        }
      ],
      "stateMutability": "view",
      "type": "function"
    },
    {
      "inputs": [],
      "name": "assetProofHash",
      "outputs": [
        {
          "internalType": "bytes32",
          "name": "",
          "type": "bytes32"
        }
      ],
      "stateMutability": "view",
      "type": "function"
    },
    {
      "inputs": [],
      "name": "assetTokenContract",
      "outputs": [
        {
          "internalType": "address",
          "name": "",
          "type": "address"
        }
      ],
      "stateMutability": "view",
      "type": "function"
    },
    {
      "inputs": [],
      "name": "assetTokenEscrowed",
      "outputs": [
        {
          "internalType": "bool",
          "name": "",
          "type": "bool"
        }
      ],
      "stateMutability": "view",
      "type": "function"
    },
    {
      "inputs": [],
      "name": "assetTokenId",
      "outputs": [
        {
          "internalType": "uint256",
          "name": "",
          "type": "uint256"
        }
      ],
      "stateMutability": "view",
      "type": "function"
    },
    {
      "inputs": [],
      "name": "biddingStartTime",
      "outputs": [
        {
          "internalType": "uint256",
          "name": "",
          "type": "uint256"
        }
      ],
      "stateMutability": "view",
      "type": "function"
    },
    {
      "inputs": [
        {
          "internalType": "address",
          "name": "",
          "type": "address"
        }
      ],
      "name": "bids",
      "outputs": [
        {
          "internalType": "bytes32",
          "name": "commitHash",
          "type": "bytes32"
        },
        {
          "internalType": "string",
          "name": "storageRoot",
          "type": "string"
        },
        {
          "internalType": "uint256",
          "name": "revealedPrice",
          "type": "uint256"
        },
        {
          "internalType": "bool",
          "name": "revealed",
          "type": "bool"
        },
        {
          "internalType": "bool",
          "name": "depositPaid",
          "type": "bool"
        },
        {
          "internalType": "bool",
          "name": "depositReturned",
          "type": "bool"
        }
      ],
      "stateMutability": "view",
      "type": "function"
    },
    {
      "inputs": [],
      "name": "bondReleaseTime",
      "outputs": [
        {
          "internalType": "uint256",
          "name": "",
          "type": "uint256"
        }
      ],
      "stateMutability": "view",
      "type": "function"
    },
    {
      "inputs": [],
      "name": "bondSlashed",
      "outputs": [
        {
          "internalType": "bool",
          "name": "",
          "type": "bool"
        }
      ],
      "stateMutability": "view",
      "type": "function"
    },
    {
      "inputs": [],
      "name": "buyer",
      "outputs": [
        {
          "internalType": "address",
          "name": "",
          "type": "address"
        }
      ],
      "stateMutability": "view",
      "type": "function"
    },
    {
      "inputs": [],
      "name": "buyerECIESPubKey",
      "outputs": [
        {
          "internalType": "string",
          "name": "",
          "type": "string"
        }
      ],
      "stateMutability": "view",
      "type": "function"
    },
    {
      "inputs": [],
      "name": "cancel",
      "outputs": [],
      "stateMutability": "nonpayable",
      "type": "function"
    },
    {
      "inputs": [],
      "name": "claimBuyerDefault",
      "outputs": [],
      "stateMutability": "nonpayable",
      "type": "function"
    },
    {
      "inputs": [],
      "name": "claimOracleTimeout",
      "outputs": [],
      "stateMutability": "nonpayable",
      "type": "function"
    },
    {
      "inputs": [],
      "name": "closeTime",
      "outputs": [
        {
          "internalType": "uint256",
          "name": "",
          "type": "uint256"
        }
      ],
      "stateMutability": "view",
      "type": "function"
    },
    {
      "inputs": [
        {
          "internalType": "bytes32",
          "name": "_commitHash",
          "type": "bytes32"
        },
        {
          "internalType": "string",
          "name": "_storageRoot",
          "type": "string"
        }
      ],
      "name": "commitBid",
      "outputs": [],
      "stateMutability": "payable",
      "type": "function"
    },
    {
      "inputs": [],
      "name": "confirmDelivery",
      "outputs": [],
      "stateMutability": "nonpayable",
      "type": "function"
    },
    {
      "inputs": [
        {
          "internalType": "address",
          "name": "",
          "type": "address"
        }
      ],
      "name": "conflictAttestationSubmitted",
      "outputs": [
        {
          "internalType": "bool",
          "name": "",
          "type": "bool"
        }
      ],
      "stateMutability": "view",
      "type": "function"
    },
    {
      "inputs": [],
      "name": "creatorBond",
      "outputs": [
        {
          "internalType": "uint256",
          "name": "",
          "type": "uint256"
        }
      ],
      "stateMutability": "view",
      "type": "function"
    },
    {
      "inputs": [],
      "name": "declaredAssetValue",
      "outputs": [
        {
          "internalType": "uint256",
          "name": "",
          "type": "uint256"
        }
      ],
      "stateMutability": "view",
      "type": "function"
    },
    {
      "inputs": [],
      "name": "delivered",
      "outputs": [
        {
          "internalType": "bool",
          "name": "",
          "type": "bool"
        }
      ],
      "stateMutability": "view",
      "type": "function"
    },
    {
      "inputs": [],
      "name": "depositRequired",
      "outputs": [
        {
          "internalType": "uint256",
          "name": "",
          "type": "uint256"
        }
      ],
      "stateMutability": "view",
      "type": "function"
    },
    {
      "inputs": [],
      "name": "description",
      "outputs": [
        {
          "internalType": "string",
          "name": "",
          "type": "string"
        }
      ],
      "stateMutability": "view",
      "type": "function"
    },
    {
      "inputs": [],
      "name": "disputeDelivery",
      "outputs": [],
      "stateMutability": "nonpayable",
      "type": "function"
    },
    {
      "inputs": [],
      "name": "eip712Domain",
      "outputs": [
        {
          "internalType": "bytes1",
          "name": "fields",
          "type": "bytes1"
        },
        {
          "internalType": "string",
          "name": "name",
          "type": "string"
        },
        {
          "internalType": "string",
          "name": "version",
          "type": "string"
        },
        {
          "internalType": "uint256",
          "name": "chainId",
          "type": "uint256"
        },
        {
          "internalType": "address",
          "name": "verifyingContract",
          "type": "address"
        },
        {
          "internalType": "bytes32",
          "name": "salt",
          "type": "bytes32"
        },
        {
          "internalType": "uint256[]",
          "name": "extensions",
          "type": "uint256[]"
        }
      ],
      "stateMutability": "view",
      "type": "function"
    },
    {
      "inputs": [],
      "name": "factory",
      "outputs": [
        {
          "internalType": "contract IShadowBidFactory",
          "name": "",
          "type": "address"
        }
      ],
      "stateMutability": "view",
      "type": "function"
    },
    {
      "inputs": [],
      "name": "getAllowedJurisdictions",
      "outputs": [
        {
          "internalType": "string[]",
          "name": "",
          "type": "string[]"
        }
      ],
      "stateMutability": "view",
      "type": "function"
    },
    {
      "inputs": [],
      "name": "getAuditData",
      "outputs": [
        {
          "internalType": "address[]",
          "name": "_suppliers",
          "type": "address[]"
        },
        {
          "internalType": "bytes32[]",
          "name": "_hashes",
          "type": "bytes32[]"
        },
        {
          "internalType": "string[]",
          "name": "_storageRoots",
          "type": "string[]"
        },
        {
          "internalType": "uint256[]",
          "name": "_prices",
          "type": "uint256[]"
        },
        {
          "internalType": "bool[]",
          "name": "_revealed",
          "type": "bool[]"
        }
      ],
      "stateMutability": "view",
      "type": "function"
    },
    {
      "inputs": [],
      "name": "getBidCount",
      "outputs": [
        {
          "internalType": "uint256",
          "name": "",
          "type": "uint256"
        }
      ],
      "stateMutability": "view",
      "type": "function"
    },
    {
      "inputs": [],
      "name": "getCurrentPhase",
      "outputs": [
        {
          "internalType": "enum ShadowBidVault.Phase",
          "name": "",
          "type": "uint8"
        }
      ],
      "stateMutability": "view",
      "type": "function"
    },
    {
      "inputs": [],
      "name": "getDomainSeparator",
      "outputs": [
        {
          "internalType": "bytes32",
          "name": "",
          "type": "bytes32"
        }
      ],
      "stateMutability": "view",
      "type": "function"
    },
    {
      "inputs": [],
      "name": "getSuppliers",
      "outputs": [
        {
          "internalType": "address[]",
          "name": "",
          "type": "address[]"
        }
      ],
      "stateMutability": "view",
      "type": "function"
    },
    {
      "inputs": [],
      "name": "getTimeToClose",
      "outputs": [
        {
          "internalType": "uint256",
          "name": "",
          "type": "uint256"
        }
      ],
      "stateMutability": "view",
      "type": "function"
    },
    {
      "inputs": [
        {
          "internalType": "address",
          "name": "_factory",
          "type": "address"
        },
        {
          "internalType": "address",
          "name": "_platformAdmin",
          "type": "address"
        },
        {
          "internalType": "address",
          "name": "_oracle",
          "type": "address"
        },
        {
          "internalType": "bytes32",
          "name": "_assetProofHash",
          "type": "bytes32"
        },
        {
          "internalType": "uint256",
          "name": "_declaredAssetValue",
          "type": "uint256"
        },
        {
          "internalType": "address",
          "name": "_assetTokenContract",
          "type": "address"
        },
        {
          "internalType": "uint256",
          "name": "_assetTokenId",
          "type": "uint256"
        },
        {
          "internalType": "bool",
          "name": "_requiresAccreditation",
          "type": "bool"
        },
        {
          "internalType": "string[]",
          "name": "_allowedJurisdictions",
          "type": "string[]"
        },
        {
          "internalType": "address",
          "name": "_settlementToken",
          "type": "address"
        },
        {
          "internalType": "uint256",
          "name": "_settlementWindow",
          "type": "uint256"
        },
        {
          "internalType": "uint256",
          "name": "_oracleTimeout",
          "type": "uint256"
        },
        {
          "internalType": "address",
          "name": "_buyer",
          "type": "address"
        },
        {
          "internalType": "string",
          "name": "_title",
          "type": "string"
        },
        {
          "internalType": "string",
          "name": "_description",
          "type": "string"
        },
        {
          "internalType": "uint256",
          "name": "_closeTime",
          "type": "uint256"
        },
        {
          "internalType": "uint256",
          "name": "_revealWindow",
          "type": "uint256"
        },
        {
          "internalType": "uint256",
          "name": "_depositRequired",
          "type": "uint256"
        },
        {
          "internalType": "address[]",
          "name": "_allowedSuppliers",
          "type": "address[]"
        },
        {
          "internalType": "string",
          "name": "_buyerECIESPubKey",
          "type": "string"
        },
        {
          "internalType": "uint256",
          "name": "_reviewWindowSeconds",
          "type": "uint256"
        }
      ],
      "name": "initialize",
      "outputs": [],
      "stateMutability": "payable",
      "type": "function"
    },
    {
      "inputs": [
        {
          "internalType": "address",
          "name": "",
          "type": "address"
        }
      ],
      "name": "isAllowedSupplier",
      "outputs": [
        {
          "internalType": "bool",
          "name": "",
          "type": "bool"
        }
      ],
      "stateMutability": "view",
      "type": "function"
    },
    {
      "inputs": [],
      "name": "oracle",
      "outputs": [
        {
          "internalType": "address",
          "name": "",
          "type": "address"
        }
      ],
      "stateMutability": "view",
      "type": "function"
    },
    {
      "inputs": [],
      "name": "oracleTimeout",
      "outputs": [
        {
          "internalType": "uint256",
          "name": "",
          "type": "uint256"
        }
      ],
      "stateMutability": "view",
      "type": "function"
    },
    {
      "inputs": [],
      "name": "pause",
      "outputs": [],
      "stateMutability": "nonpayable",
      "type": "function"
    },
    {
      "inputs": [],
      "name": "paused",
      "outputs": [
        {
          "internalType": "bool",
          "name": "",
          "type": "bool"
        }
      ],
      "stateMutability": "view",
      "type": "function"
    },
    {
      "inputs": [],
      "name": "paymentSubmitted",
      "outputs": [
        {
          "internalType": "bool",
          "name": "",
          "type": "bool"
        }
      ],
      "stateMutability": "view",
      "type": "function"
    },
    {
      "inputs": [],
      "name": "phase",
      "outputs": [
        {
          "internalType": "enum ShadowBidVault.Phase",
          "name": "",
          "type": "uint8"
        }
      ],
      "stateMutability": "view",
      "type": "function"
    },
    {
      "inputs": [],
      "name": "platformAdmin",
      "outputs": [
        {
          "internalType": "address",
          "name": "",
          "type": "address"
        }
      ],
      "stateMutability": "view",
      "type": "function"
    },
    {
      "inputs": [],
      "name": "releaseCreatorBond",
      "outputs": [],
      "stateMutability": "nonpayable",
      "type": "function"
    },
    {
      "inputs": [],
      "name": "requiresAccreditation",
      "outputs": [
        {
          "internalType": "bool",
          "name": "",
          "type": "bool"
        }
      ],
      "stateMutability": "view",
      "type": "function"
    },
    {
      "inputs": [
        {
          "internalType": "uint256",
          "name": "_price",
          "type": "uint256"
        },
        {
          "internalType": "bytes32",
          "name": "_salt",
          "type": "bytes32"
        }
      ],
      "name": "revealBid",
      "outputs": [],
      "stateMutability": "nonpayable",
      "type": "function"
    },
    {
      "inputs": [],
      "name": "revealDeadline",
      "outputs": [
        {
          "internalType": "uint256",
          "name": "",
          "type": "uint256"
        }
      ],
      "stateMutability": "view",
      "type": "function"
    },
    {
      "inputs": [],
      "name": "secondBidAmount",
      "outputs": [
        {
          "internalType": "uint256",
          "name": "",
          "type": "uint256"
        }
      ],
      "stateMutability": "view",
      "type": "function"
    },
    {
      "inputs": [],
      "name": "secondBidder",
      "outputs": [
        {
          "internalType": "address",
          "name": "",
          "type": "address"
        }
      ],
      "stateMutability": "view",
      "type": "function"
    },
    {
      "inputs": [],
      "name": "settle",
      "outputs": [],
      "stateMutability": "nonpayable",
      "type": "function"
    },
    {
      "inputs": [],
      "name": "settlementDeadline",
      "outputs": [
        {
          "internalType": "uint256",
          "name": "",
          "type": "uint256"
        }
      ],
      "stateMutability": "view",
      "type": "function"
    },
    {
      "inputs": [],
      "name": "settlementTime",
      "outputs": [
        {
          "internalType": "uint256",
          "name": "",
          "type": "uint256"
        }
      ],
      "stateMutability": "view",
      "type": "function"
    },
    {
      "inputs": [],
      "name": "settlementToken",
      "outputs": [
        {
          "internalType": "address",
          "name": "",
          "type": "address"
        }
      ],
      "stateMutability": "view",
      "type": "function"
    },
    {
      "inputs": [],
      "name": "settlementWindow",
      "outputs": [
        {
          "internalType": "uint256",
          "name": "",
          "type": "uint256"
        }
      ],
      "stateMutability": "view",
      "type": "function"
    },
    {
      "inputs": [
        {
          "internalType": "address",
          "name": "victim",
          "type": "address"
        }
      ],
      "name": "slashCreatorBond",
      "outputs": [],
      "stateMutability": "nonpayable",
      "type": "function"
    },
    {
      "inputs": [
        {
          "internalType": "uint256",
          "name": "timestamp",
          "type": "uint256"
        },
        {
          "internalType": "bytes",
          "name": "sig",
          "type": "bytes"
        }
      ],
      "name": "submitConflictAttestation",
      "outputs": [],
      "stateMutability": "nonpayable",
      "type": "function"
    },
    {
      "inputs": [],
      "name": "submitPayment",
      "outputs": [],
      "stateMutability": "nonpayable",
      "type": "function"
    },
    {
      "inputs": [
        {
          "internalType": "uint256",
          "name": "",
          "type": "uint256"
        }
      ],
      "name": "suppliers",
      "outputs": [
        {
          "internalType": "address",
          "name": "",
          "type": "address"
        }
      ],
      "stateMutability": "view",
      "type": "function"
    },
    {
      "inputs": [],
      "name": "title",
      "outputs": [
        {
          "internalType": "string",
          "name": "",
          "type": "string"
        }
      ],
      "stateMutability": "view",
      "type": "function"
    },
    {
      "inputs": [],
      "name": "triggerRevealPhase",
      "outputs": [],
      "stateMutability": "nonpayable",
      "type": "function"
    },
    {
      "inputs": [],
      "name": "unpause",
      "outputs": [],
      "stateMutability": "nonpayable",
      "type": "function"
    },
    {
      "inputs": [
        {
          "internalType": "address",
          "name": "newOracle",
          "type": "address"
        }
      ],
      "name": "updateOracle",
      "outputs": [],
      "stateMutability": "nonpayable",
      "type": "function"
    },
    {
      "inputs": [],
      "name": "winner",
      "outputs": [
        {
          "internalType": "address",
          "name": "",
          "type": "address"
        }
      ],
      "stateMutability": "view",
      "type": "function"
    },
    {
      "inputs": [],
      "name": "winningBidAmount",
      "outputs": [
        {
          "internalType": "uint256",
          "name": "",
          "type": "uint256"
        }
      ],
      "stateMutability": "view",
      "type": "function"
    },
    {
      "inputs": [],
      "name": "winningPrice",
      "outputs": [
        {
          "internalType": "uint256",
          "name": "",
          "type": "uint256"
        }
      ],
      "stateMutability": "view",
      "type": "function"
    },
    {
      "stateMutability": "payable",
      "type": "receive"
    }
  ],
  "transactionHash": "0xb626c17bf4a541a6700cdde99b2098b7c678bab5f17ccae295585572fc0ad772",
  "args": [],
  "numDeployments": 3,
  "solcInputHash": "d01dffb455f8625432579c43bbc087b7",
  "bytecode": "0x6101606040523461013a5760405161001860408261013f565b6008815260208101906711185c9ad41bdbdb60c21b82526040519161003e60408461013f565b600183526020830191603160f81b8352600160005561005c81610178565b610120526100698461033c565b61014052519020918260e05251902080610100524660a0526040519060208201927f8b73c3c69bb8fe3d512ecc4cf759cc79239f7b179b0ffacaa9a75d522b39400f8452604083015260608201524660808201523060a082015260a081526100d260c08261013f565b5190206080523060c052600160ff1960255416176025556040516148f790816104db8239608051816145d7015260a05181614694015260c051816145a1015260e051816146260152610100518161464c015261012051816127530152610140518161277f0152f35b600080fd5b601f909101601f19168101906001600160401b0382119082101761016257604052565b634e487b7160e01b600052604160045260246000fd5b90815160208110600014610210575090601f8151116101b45760208151910151602082106101a4571790565b6000198260200360031b1b161790565b6040519063305a27a960e01b8252602060048301528181519182602483015260005b8381106101f85750508160006044809484010152601f80199101168101030190fd5b602082820181015160448784010152859350016101d6565b6001600160401b03811161016257600154600181811c91168015610332575b602082101461031c57601f81116102e6575b50602092601f82116001146102815792819293600092610276575b50508160011b916000199060031b1c19161760015560ff90565b01519050388061025c565b601f198216936001600052806000209160005b8681106102ce57508360019596106102b5575b505050811b0160015560ff90565b015160001960f88460031b161c191690553880806102a7565b91926020600181928685015181550194019201610294565b6001600052601f6020600020910160051c810190601f830160051c015b8181106103105750610241565b60008155600101610303565b634e487b7160e01b600052602260045260246000fd5b90607f169061022f565b908151602081106000146103c4575090601f8151116103685760208151910151602082106101a4571790565b6040519063305a27a960e01b8252602060048301528181519182602483015260005b8381106103ac5750508160006044809484010152601f80199101168101030190fd5b6020828201810151604487840101528593500161038a565b6001600160401b03811161016257600254600181811c911680156104d0575b602082101461031c57601f811161049a575b50602092601f8211600114610435579281929360009261042a575b50508160011b916000199060031b1c19161760025560ff90565b015190503880610410565b601f198216936002600052806000209160005b8681106104825750836001959610610469575b505050811b0160025560ff90565b015160001960f88460031b161c1916905538808061045b565b91926020600181928685015181550194019201610448565b6002600052601f6020600020910160051c810190601f830160051c015b8181106104c457506103f5565b600081556001016104b7565b90607f16906103e356fe60a080604052600436101561001d575b50361561001b57600080fd5b005b60006080526080513560e01c90816301ddc46114613ec0575080630553d60414613ea15780630a85e26e14613ca15780630bcfedc014613c7d5780630ec2b27214613c4f57806311da60b414613760578063193c05fc146136a25780631cb44dfc1461361a57806328188f0d146135fb57806328f6a48a146135dc5780632a9605f4146135bd5780632f066bcf146132e55780633f4ba83a146132ac578063435168321461322d578063459d6e4f1461320e5780634a79d50c1461317f5780634e677d0f1461315b578063553fc5741461313c578063559405ee1461311d57806356bff0f8146130f35780635b9cb0f7146130d45780635c975abb146130ad5780635e10177b14612e30578063627749e614612e1157806362c5424a14612c0e57806362ea82db14612b6b578063646c832d146129a65780637150d8ae1461297c5780637284e416146128ed57806373adc0df146128c957806373e1cfa5146128a55780637b9e618d1461287b5780637dc0d1d01461284d5780638456cb591461280e57806384b0196e14612739578063853f4796146126f8578063882d84be1461269e57806389fb52be1461240c5780638bc6ed5f146123cb578063993ba8401461217b578063a1f1b96814611fd8578063a2a60b1414611fb9578063a3a40ea514611f90578063ab66a17314611d10578063abfeece514611cf1578063b14b28a314611cd2578063b1c9fe6e14611ca4578063b4a7bdf914611c85578063bbdfbfba14611c5e578063bcdf8a151461123e578063c1f526041461121f578063c26d2ae314611190578063c45a015514611166578063c5d6e87f14611147578063cd5c1ef71461112b578063cdcd7fb514611101578063cea23121146110bf578063d46cdfe014610fba578063dfbf53ae14610f92578063e7e1e69f146106bb578063ea8a1af014610405578063ed24911d146103e1578063fa681801146103c25763fc129df9146102f0573861000f565b346103bc576080513660031901126103bc5760405160805160085461031481613f34565b80845290600181169081156103985750600114610354575b6103508361033c81850382613ff1565b60405191829160208352602083019061404b565b0390f35b60808051600890525160208120939250905b80821061037e5750909150810160200161033c61032c565b919260018160209254838588010152019101909291610366565b60ff191660208086019190915291151560051b8401909101915061033c905061032c565b60805180fd5b346103bc576080513660031901126103bc576020600a54604051908152f35b346103bc576080513660031901126103bc5760206103fd61459e565b604051908152f35b346103bc576080513660031901126103bc5761041f61457c565b61043460018060a01b03600554163314614272565b601b54600881901c60ff1661044881614176565b6106765761ff00191661030017601b55604051600381527fa6dcc92f45df25789d5639b7a0c97ba1edf3bb1c0b5dd3376fd96a0db87c464290602090a1608051805b601c548210156105b75761049d826140a4565b60018060a01b0391549060031b1c16918260805152601e60205260ff6003604060805120015460081c1680610596575b6104dc575b600101915061048a565b60808051849052601e6020525160408120600301805462ff0000191662010000179055600d54819081908190875af1610513614204565b501561055a57610524600192614344565b927fa09244c122a83074363635dc89ce0098166c2f74827960ff64a7c8e6ad1c57a26020600d54604051908152a28291506104d2565b60405162461bcd60e51b815260206004820152601460248201527310d85b98d95b081c99599d5b990819985a5b195960621b6044820152606490fd5b508260805152601e60205260ff6003604060805120015460101c16156104cd565b60175480151580610669575b6105fd575b7f2809c7e17bf978fbc7194c0a694b638c4215e9140cacc6c38ca36010b45697df602083604051908152a16080516001815580f35b608051601781905560055490918291829182916001600160a01b03165af1610623614204565b501561062f57816105c8565b60405162461bcd60e51b8152602060048201526012602482015271109bdb99081c995d1d5c9b8819985a5b195960721b6044820152606490fd5b5060ff60195416156105c3565b60405162461bcd60e51b815260206004820152601d60248201527f43616e206f6e6c792063616e63656c20696e204f50454e2070686173650000006044820152606490fd5b60403660031901126103bc576004356024356001600160401b0381116103bc576106e9903690600401614149565b916106fc60ff60045460a01c1615614234565b600e544210610f4e57600b54421015610f145760035460405163036c197d60e21b81523360048201526001600160a01b0390911690602081602481855afa908115610d305760805191610ef5575b5015610eb05760ff600f5416610e09575b5061076461457c565b3360805152601d60205261078060ff60406080512054166143f0565b6005546001600160a01b0316338114610dc457600354604051630a140e3160e21b81523360048201526001600160a01b039091169190602081602481865afa908115610d305760805191610d82575b506001600160a01b031614610d3d5760105480610bbf575b50503360805152601f60205260ff604060805120541615610b7a57601b5461081e9060081c60ff1661081881614176565b15614360565b600d543403610b35573360805152601e60205260406080512054610afc578015610ac1578215610a845760405160c081018181106001600160401b038211176109f3576040528181526108723685856144a0565b602082019081526040820160805181526060830192608051845260808101916001835260a082019360805185523360805152601e602052604060805120925183556001830190518051906001600160401b0382116109f3576108de826108d88554613f34565b85614521565b6020906001601f841114610a165791806109169260039796959460805192610a0b575b50508160011b916000199060031b1c19161790565b90555b5160028201559351930180549151925162ffffff1990921660ff941515949094169390931791151560081b61ff00169190911790151560101b62ff000016179055601c54600160401b8110156109f3577f86f781daa84d3048458bbb81da6270757827691a6feae91ee9e897541176958f9261099c826001879401601c556140a4565b81549060031b9033821b9160018060a01b03901b1916179055604051928352604060208401528160408401526060830137608051606084830101526060813394601f80199101168101030190a26080516001815580f35b634e487b7160e01b6080515260416004526024608051fd5b015190508d80610901565b90601f1983169184608051528160805120926080515b818110610a6c57509160019391856003999897969410610a54575b505050811b019055610919565b015160001983891b60f8161c191690558c8080610a47565b92936020600181928786015181550195019301610a2c565b60405162461bcd60e51b815260206004820152601560248201527414dd1bdc9859d9481c9bdbdd081c995c5d5a5c9959605a1b6044820152606490fd5b60405162461bcd60e51b8152602060048201526013602482015272092dcecc2d8d2c840c6dedadad2e840d0c2e6d606b1b6044820152606490fd5b60405162461bcd60e51b8152602060048201526011602482015270105b1c9958591e4818dbdb5b5a5d1d1959607a1b6044820152606490fd5b60405162461bcd60e51b815260206004820152601860248201527f496e636f7272656374206465706f73697420616d6f756e7400000000000000006044820152606490fd5b60405162461bcd60e51b815260206004820152601d60248201527f436f6e666c696374206174746573746174696f6e2072657175697265640000006044820152606490fd5b6040519163f20c9eb760e01b835233600484015282602481608051935afa918215610d305760805192610cb4575b5060805191825b828110610c68575b50505015610c0b5783806107e7565b60405162461bcd60e51b815260206004820152602f60248201527f426964646572206a7572697364696374696f6e206e6f7420696e20616c6c6f7760448201526e65644a7572697364696374696f6e7360881b6064820152608490fd5b81516020830120610c8b610c92610c7e846140d5565b5060405192838092613f6e565b0382613ff1565b6020815191012014610ca657600101610bf4565b505050506001848080610bfc565b9091503d80608051833e610cc88183613ff1565b8101906020818303126103bc578051906001600160401b0382116103bc570181601f820112156103bc578051610cfd816141e9565b92610d0b6040519485613ff1565b818452602082840101116103bc57610d299160208085019101614028565b9085610bed565b6040513d608051823e3d90fd5b60405162461bcd60e51b815260206004820152601d60248201527f416666696c696174656420616464726573732063616e6e6f74206269640000006044820152606490fd5b90506020813d602011610dbc575b81610d9d60209383613ff1565b810103126103bc57516001600160a01b03811681036103bc57866107cf565b3d9150610d90565b60405162461bcd60e51b815260206004820152601a60248201527f41756374696f6e2063726561746f722063616e6e6f74206269640000000000006044820152606490fd5b602060249160405192838092632d598d7b60e01b82523360048301525afa908115610d305760805191610e81575b5015610e43578361075b565b60405162461bcd60e51b81526020600482015260166024820152751058d8dc99591a5d185d1a5bdb881c995c5d5a5c995960521b6044820152606490fd5b610ea3915060203d602011610ea9575b610e9b8183613ff1565b8101906143d8565b84610e37565b503d610e91565b60405162461bcd60e51b815260206004820152601c60248201527f496e737469747574696f6e206e6f74204b59422d7665726966696564000000006044820152606490fd5b610f0e915060203d602011610ea957610e9b8183613ff1565b8561074a565b60405162461bcd60e51b8152602060048201526012602482015271105d58dd1a5bdb881a185cc818db1bdcd95960721b6044820152606490fd5b606460405162461bcd60e51b815260206004820152602060248201527f4173736574207265766965772077696e646f77207374696c6c206163746976656044820152fd5b346103bc576080513660031901126103bc57602080546040516001600160a01b039091168152f35b346103bc576080513660031901126103bc576020546001600160a01b0316610fe333821461443c565b60155460ff8160a81c1661107a5760ff161561103e576004805460ff60a01b1916600160a01b1790556040514281527f7b0bb292832b1355775727f1f7971946bc408e49fb4cdaae1c0ca69229e15df190602090a260805180f35b60405162461bcd60e51b81526020600482015260146024820152734e6f207061796d656e7420696e20657363726f7760601b6044820152606490fd5b60405162461bcd60e51b815260206004820152601e60248201527f416c726561647920636f6e6669726d65642061732064656c69766572656400006044820152606490fd5b346103bc5760203660031901126103bc57600435601c548110156103bc576110e86020916140a4565b905460405160039290921b1c6001600160a01b03168152f35b346103bc576080513660031901126103bc576004546040516001600160a01b039091168152602090f35b346103bc576080513660031901126103bc5760206103fd61455d565b346103bc576080513660031901126103bc576020601354604051908152f35b346103bc576080513660031901126103bc576003546040516001600160a01b039091168152602090f35b346103bc576080513660031901126103bc576010546111ae81614475565b906111bc6040519283613ff1565b808252602082016010608051526000805160206148a2833981519152608051915b8383106111fa5760405160208082528190610350908201886140f0565b60016020819260405161121181610c8b8189613f6e565b8152019201920191906111dd565b346103bc576080513660031901126103bc576020602154604051908152f35b6102a03660031901126103bc57611253613edc565b602435906001600160a01b03821682036103bc57604435906001600160a01b03821682036103bc5760a435906001600160a01b03821682036103bc5760e4359384151585036103bc57610104356001600160401b0381116103bc576112bc903690600401614196565b610124359391906001600160a01b03851685036103bc5761018435946001600160a01b03861686036103bc576101a4356001600160401b0381116103bc57611308903690600401614149565b916101c4356001600160401b0381116103bc57611329903690600401614149565b959094610244356001600160401b0381116103bc5761134c903690600401614196565b9d909c610264356001600160401b0381116103bc5761136f903690600401614149565b9b909a60255460ff8116611c235760ff19166001176025556001600160a01b03871615611bde57608435158015611b3e575b5060018060a01b03166001600160601b0360a01b600354161760035560018060a01b03166001600160601b0360a01b600454161760045560155490610100600160a81b039060081b1690610100600160a81b03191617601555606435600955608435600a5560ff8019600f54169115151617600f55600160401b81116109f35760105481601055808210611aa3575b50816010608051526000805160206148a283398151915292608051915b838310611988575050601180546001600160a01b0319166001600160a01b039590951694909417909355505050610144351561197f57610144355b601255610164351561197657610164355b60165534601755600580546001600160a01b0319166001600160a01b0389161790556001600160401b0382116109f3576114d4600654613f34565b601f8111611941575b5060805190601f83116001146118b95791809161151193608051926118ae5750508160011b916000199060031b1c19161790565b6006555b6001600160401b0382116109f35761152e600754613f34565b601f8111611879575b5060805190601f83116001146117f15791809161156b93608051926117e65750508160011b916000199060031b1c19161790565b6007555b6101e435600b55611586610204356101e435614353565b600c5561022435600d556001600160401b0382116109f3576115a9600854613f34565b601f81116117a6575b5060805190601f831160011461171e579180916115e693608051926117135750508160011b916000199060031b1c19161790565b6008555b6115f76102843542614353565b600e55608051601b805461ff00191690555b8481101561164e57600581901b8401356001600160a01b03811691908290036103bc5760019160805152601d6020526040608051208260ff1982541617905501611609565b506001600160a01b038216611664575b60805180f35b60198054610100600160a81b031916600884901b610100600160a81b031617905560c435601a556001600160a01b0382163b156103bc576040516323b872dd60e01b8152608080516001600160a01b03938416600484015230602484015260c435604484015290519193909284926064928492165af18015610d30576116fa575b50600160ff19601b541617601b55808061165e565b60805161170691613ff1565b6080516103bc57806116e5565b013590508780610901565b601f198316916008608051527ff3f7a9fe364faab93b216da50a3214154f22a0a2b415b23a84c8169e8b636ee3926080515b81811061178e5750908460019594939210611774575b505050811b016008556115ea565b0135600019600384901b60f8161c19169055868080611766565b91936020600181928787013581550195019201611750565b6117d690600860805152602060805120601f850160051c810191602086106117dc575b601f0160051c019061450a565b866115b2565b90915081906117c9565b013590508980610901565b601f198316916007608051527fa66cc928b5edb82af9bd49922954155ab7b0942694bea4ce44661d9a8736c688926080515b8181106118615750908460019594939210611847575b505050811b0160075561156f565b0135600019600384901b60f8161c19169055888080611839565b91936020600181928787013581550195019201611823565b6118a890600760805152602060805120601f850160051c810191602086106117dc57601f0160051c019061450a565b88611537565b013590508b80610901565b601f198316916006608051527ff652222313e28459528d920b65115c16c04f3efc82aaedc97be59f3f377c0d3f926080515b818110611929575090846001959493921061190f575b505050811b01600655611515565b0135600019600384901b60f8161c191690558a8080611901565b919360206001819287870135815501950192016118eb565b61197090600660805152602060805120601f850160051c810191602086106117dc57601f0160051c019061450a565b8a6114dd565b62278d00611499565b6202a300611488565b8035601e19833603018112156103bc5780830135906001600160401b0382116103bc57813603602082860101136103bc57608051506119d1826119cb8954613f34565b89614521565b60805190601f8311600114611a295792611a0b8360019594602094879660805192611a1a5750508160011b916000199060031b1c19161790565b88555b0195019201919361144d565b86925089010101353880610901565b601f198316918860805152602060805120926080515b818110611a875750936020936001969387969383889510611a68575b505050811b018855611a0e565b90890101850135600019600384901b60f8161c19169055388080611a5b565b91936020600181928288888d0101013581550195019201611a3f565b601060805152816000805160206148a2833981519152015b816000805160206148a2833981519152018110611ad85750611430565b80611ae560019254613f34565b80611af2575b5001611abb565b601f81118314611b09575060805181555b38611aeb565b611b2990826080515283601f602060805120920160051c8201910161450a565b60808051829052516020812081835555611b03565b6005608435029060843582046005141715611bc6576103e89004662386f26fc100008110611bb8575b3410611b7357386113a1565b60405162461bcd60e51b815260206004820152601960248201527f496e73756666696369656e742063726561746f7220626f6e64000000000000006044820152606490fd5b50662386f26fc10000611b67565b634e487b7160e01b6080515260116004526024608051fd5b60405162461bcd60e51b815260206004820152601960248201527f536574746c656d656e7420746f6b656e207265717569726564000000000000006044820152606490fd5b60405162461bcd60e51b8152602060048201526013602482015272105b1c9958591e481a5b9a5d1a585b1a5e9959606a1b6044820152606490fd5b346103bc576080513660031901126103bc57602060ff60155460a81c166040519015158152f35b346103bc576080513660031901126103bc576020601254604051908152f35b346103bc576080513660031901126103bc57602060ff601b5460081c1660405190611cce81614176565b8152f35b346103bc576080513660031901126103bc576020600c54604051908152f35b346103bc576080513660031901126103bc576020601654604051908152f35b346103bc576080513660031901126103bc57611d3760018060a01b03600554163314614272565b611d3f61457c565b60ff60155416611f5357601354421115611f0e57601b5460029060081c60ff16611d6881614176565b03611edb5760018060a01b03602054168060805152601e60205260ff6003604060805120015460081c1680611eba575b611e26575b506023546001600160a01b0381169081611dbc575b6080516001815580f35b60207f4de337a5b3087bb9572efb79bea97d63573032d874dc3aacd01fc546b5b16fef91836001600160601b0360a01b83541617825560245490816022556001600160601b0360a01b16602355611e1560125442614353565b601355604051908152a28080611db2565b60808051829052601e6020525160408120600301805462ff0000191662010000179055600554600d54611e749291829182918291906001600160a01b03165af1611e6e614204565b50614300565b600d54600554604080519283526001600160a01b0390911660208301527f629864fafe7008a0b7eee7774c68adc1f42dc9416f80ccbd02b555fd5a7d7b4a91a280611d9d565b508060805152601e60205260ff6003604060805120015460101c1615611d98565b60405162461bcd60e51b815260206004820152600b60248201526a139bdd081cd95d1d1b195960aa1b6044820152606490fd5b60405162461bcd60e51b815260206004820152601c60248201527f536574746c656d656e742077696e646f77207374696c6c206f70656e000000006044820152606490fd5b60405162461bcd60e51b815260206004820152601560248201527414185e5b595b9d081dd85cc81cdd589b5a5d1d1959605a1b6044820152606490fd5b346103bc576080513660031901126103bc576020611fac6144d7565b60405190611cce81614176565b346103bc576080513660031901126103bc576020601854604051908152f35b346103bc576080513660031901126103bc576005546001600160a01b0316612001338214614272565b60ff60155460a81c161561213d5760185442106120f85760ff601954166120c05760178054608051918290559181908190819085905af1612040614204565b5015612085576005546040519182526001600160a01b0316907f7f9716bd358c3f9d371daa50cebfa04873f4c7ff8d5cd7ef014403a31403060190602090a260805180f35b60405162461bcd60e51b8152602060048201526013602482015272109bdb99081c995b19585cd94819985a5b1959606a1b6044820152606490fd5b60405162461bcd60e51b815260206004820152601060248201526f109bdb99081dd85cc81cdb185cda195960821b6044820152606490fd5b60405162461bcd60e51b815260206004820152601d60248201527f426f6e642072656c656173652074696d65206e6f7420726561636865640000006044820152606490fd5b60405162461bcd60e51b815260206004820152601660248201527511195b1a5d995c9e481b9bdd0818dbdb999a5c9b595960521b6044820152606490fd5b346103bc5760403660031901126103bc576004356024356001600160401b0381116103bc576121ae903690600401614149565b610e0f194201428111611bc6578310612386576040516122e6936122dd936122d79290916042916058906121e3608082613ff1565b8181527f6e6f20636f6e666c696374206f6620696e7465726573742e0000000000000000606060208301927f4920636f6e6669726d204920616d206e6f7420616666696c696174656420776984527f7468207468652061756374696f6e2063726561746f7220616e642068617665206040820152015220906040519060208201927fa81275c4fdd42c9112bf9e8372acb68a618cef559fef1151e79faaa233da442d8452336040840152306060840152608083015260a082015260a081526122ac60c082613ff1565b5190206122b761459e565b906040519161190160f01b835260028301526022820152209236916144a0565b9061474e565b9092919261478a565b336001600160a01b0390911603612341573360805152601f602052604060805120600160ff19825416179055337f55eb9c416bfb99823c55c39801985fa51637ed9621b4c7421d86b2db39f6f833608051608051a260805180f35b60405162461bcd60e51b815260206004820152601d60248201527f496e76616c6964206174746573746174696f6e207369676e61747572650000006044820152606490fd5b60405162461bcd60e51b815260206004820152601d60248201527f4174746573746174696f6e2074696d657374616d7020746f6f206f6c640000006044820152606490fd5b346103bc5760203660031901126103bc576001600160a01b036123ec613edc565b1660805152601f602052602060ff60406080512054166040519015158152f35b346103bc576080513660031901126103bc57601c546080515060405190601c548083528260208101601c60805152602060805120926080515b81811061267c57505061245a92500383613ff1565b61246381614475565b6124706040519182613ff1565b81815261247c82614475565b6020820190601f190136823761249183614475565b9061249f6040519283613ff1565b838252601f196124ae85614475565b016080515b81811061266b57506124c6905084614475565b916124d46040519384613ff1565b848352601f196124e386614475565b013660208501376124f385614475565b936125016040519586613ff1565b85855261250d86614475565b602086019690601f19013688376080515b8181106125e05761254589898989898989602060405198899860a08a5260a08a0190613ef7565b91888303828a015251918281520192906080515b8181106125c7575050509161257b8260209488612589950360408a01526140f0565b908682036060880152614070565b91848303608086015251918281520191906080515b8181106125ac575050500390f35b8251151584528594506020938401939092019160010161259e565b8251855289985060209485019490920191600101612559565b806125ec6001926140a4565b838060a01b0391549060031b1c1660805152601e60205260ff60036040608051208054612619858961448c565b5260405161262d81610c8b81898601613f6e565b612637858a61448c565b52612642848961448c565b506002810154612652858c61448c565b52015416612660828a61448c565b90151590520161251e565b8060606020809387010152016124b3565b84546001600160a01b0316835260019485019487945060209093019201612445565b346103bc5760203660031901126103bc576004356010548110156103bc576126c5906140d5565b6126df57610c8b61033c6103509260405192838092613f6e565b634e487b7160e01b608051526080516004526024608051fd5b346103bc5760203660031901126103bc576001600160a01b03612719613edc565b1660805152601d602052602060ff60406080512054166040519015158152f35b346103bc576080513660031901126103bc576127de6127777f00000000000000000000000000000000000000000000000000000000000000006146ba565b6103506127a37f0000000000000000000000000000000000000000000000000000000000000000614717565b604051906127ec906127b6602084613ff1565b60805183526000368137604051958695600f60f81b875260e0602088015260e087019061404b565b90858203604087015261404b565b9046606085015230608085015260805160a085015283820360c0850152614070565b346103bc576080513660031901126103bc57600454612837336001600160a01b038316146143a0565b60ff60a01b1916600160a01b1760045560805180f35b346103bc576080513660031901126103bc5760155460405160089190911c6001600160a01b03168152602090f35b346103bc576080513660031901126103bc576011546040516001600160a01b039091168152602090f35b346103bc576080513660031901126103bc57602060ff601b54166040519015158152f35b346103bc576080513660031901126103bc57602060ff601554166040519015158152f35b346103bc576080513660031901126103bc5760405160805160075461291181613f34565b80845290600181169081156103985750600114612938576103508361033c81850382613ff1565b60808051600790525160208120939250905b8082106129625750909150810160200161033c61032c565b91926001816020925483858801015201910190929161294a565b346103bc576080513660031901126103bc576005546040516001600160a01b039091168152602090f35b346103bc576080513660031901126103bc576129c061457c565b6020546001600160a01b03166129d733821461443c565b6015549060ff821615612b2e5760ff8260a81c16612af5576129fe60145460165490614353565b421115612ab0576022805460805190915560ff1990921660155560115460405163a9059cbb60e01b81526001600160a01b03928316600482015260248101939093526020918391168180604481010391608051905af18015610d3057612a93575b7f7f049c4341d2549bf089ffd15f8cfa1d29aba8325edec6502d173608067c09806020604051428152a16080516001815580f35b612aab9060203d602011610ea957610e9b8183613ff1565b612a5f565b60405162461bcd60e51b815260206004820152601a60248201527f4f7261636c652074696d656f7574206e6f7420726561636865640000000000006044820152606490fd5b60405162461bcd60e51b8152602060048201526011602482015270105b1c9958591e4819195b1a5d995c9959607a1b6044820152606490fd5b60405162461bcd60e51b81526020600482015260156024820152744e6f207061796d656e7420746f207265636c61696d60581b6044820152606490fd5b346103bc5760203660031901126103bc576001600160a01b03612b8c613edc565b1660805152601e602052604060805120805460405191612bba83612bb38160018501613f6e565b0384613ff1565b60ff60036002830154920154612be2604051958695865260c0602087015260c086019061404b565b92604085015281811615156060850152818160081c161515608085015260101c16151560a08301520390f35b346103bc5760403660031901126103bc57600435612c3460ff60045460a01c1615614234565b612c3c61457c565b3360805152601d602052612c5860ff60406080512054166143f0565b601b54612c779060019060081c60ff16612c7181614176565b146142be565b600c544211612dd5573360805152601e6020526040608051208054908115612d9e57600381019182549060ff8216612d6657604051602081019086825260243560408201523360601b606082015260548152612cd4607482613ff1565b51902003612d2157836002600193015560ff19161790556040519081527f9891bd98143d5a2c5f29be9a7ef8e5d7b723746fb3b75220234af7aa6caeecfe60203392a26080516001815580f35b60405162461bcd60e51b815260206004820152601d60248201527f48617368206d69736d617463683a20696e76616c69642072657665616c0000006044820152606490fd5b60405162461bcd60e51b815260206004820152601060248201526f105b1c9958591e481c995d99585b195960821b6044820152606490fd5b60405162461bcd60e51b815260206004820152600f60248201526e139bc818dbdb5b5a5d08199bdd5b99608a1b6044820152606490fd5b60405162461bcd60e51b815260206004820152601460248201527314995d99585b081dda5b991bddc818db1bdcd95960621b6044820152606490fd5b346103bc576080513660031901126103bc576020600b54604051908152f35b346103bc576080513660031901126103bc57612e4a61457c565b601554600881901c6001600160a01b0316330361307b5760ff81161561303e5760ff8160a81c16612ff95760ff60a81b1916600160a81b17601555426203f4808101908110611bc6576018556022805460805190915560115460055460405163a9059cbb60e01b81526001600160a01b03918216600482015260248101939093526020918391168180604481010391608051905af18015610d3057612fda575b5060ff601b541680612fc3575b612f32575b6040514281527f28720c586a6e736146008f9bf260b09f29b8dcc37314fed637613ea3aec614f860203392a26080516001815580f35b601954602054601a5460089290921c6001600160a01b0390811692911690823b156103bc576040516323b872dd60e01b81526080513060048301526001600160a01b03909316602482015260448101919091529182908180606481010391608051905af18015610d3057612fb1575b5060ff19601b5416601b55612efc565b608051612fbd91613ff1565b80612fa1565b5060195460081c6001600160a01b03161515612ef7565b612ff29060203d602011610ea957610e9b8183613ff1565b5080612eea565b60405162461bcd60e51b815260206004820152601a60248201527f44656c697665727920616c726561647920636f6e6669726d65640000000000006044820152606490fd5b60405162461bcd60e51b81526020600482015260156024820152745061796d656e74206e6f7420696e20657363726f7760581b6044820152606490fd5b60405162461bcd60e51b815260206004820152600a6024820152694e6f74206f7261636c6560b01b6044820152606490fd5b346103bc576080513660031901126103bc57602060ff60045460a01c166040519015158152f35b346103bc576080513660031901126103bc576020600954604051908152f35b346103bc576080513660031901126103bc576023546040516001600160a01b039091168152602090f35b346103bc576080513660031901126103bc576020602254604051908152f35b346103bc576080513660031901126103bc576020600e54604051908152f35b346103bc576080513660031901126103bc57602060ff600f54166040519015158152f35b346103bc576080513660031901126103bc576040516080516006546131a381613f34565b808452906001811690811561039857506001146131ca576103508361033c81850382613ff1565b60808051600690525160208120939250905b8082106131f45750909150810160200161033c61032c565b9192600181602092548385880101520191019092916131dc565b346103bc576080513660031901126103bc576020601754604051908152f35b346103bc576080513660031901126103bc5760805150604051601c548082526020820190601c60805152602060805120906080515b81811061328d576103508561327981870382613ff1565b604051918291602083526020830190613ef7565b82546001600160a01b0316845260209093019260019283019201613262565b346103bc576080513660031901126103bc576004546132d5336001600160a01b038316146143a0565b60ff60a01b191660045560805180f35b346103bc576080513660031901126103bc576132ff61457c565b61331160ff60045460a01c1615614234565b6020546001600160a01b031633036135875760ff601554166135425760135442116134fd576011546022546040516323b872dd60e01b815233600482015230602482015260448101919091526080519091602091839160649183916001600160a01b03165af18015610d30576134e0575b50600160ff19601554161760155560018060a01b03602054168060805152601e60205260ff6003604060805120015460081c16806134bf575b6133f9575b6022546040519081527fc316f20e64ae406ed0ec8373c2c534a8b8dd8a257803c151e9d573910a1015ff60203392a26080516001815580f35b6080805191909152601e6020908152905160408120600301805462ff00001916620100001790559054600d548291829182916001600160a01b03165af161343e614204565b50156134825760018060a01b03602054167fa09244c122a83074363635dc89ce0098166c2f74827960ff64a7c8e6ad1c57a26020600d54604051908152a2806133c0565b60405162461bcd60e51b815260206004820152601560248201527411195c1bdcda5d081c995d1d5c9b8819985a5b1959605a1b6044820152606490fd5b508060805152601e60205260ff6003604060805120015460101c16156133bb565b6134f89060203d602011610ea957610e9b8183613ff1565b613382565b60405162461bcd60e51b815260206004820152601960248201527f536574746c656d656e742077696e646f772065787069726564000000000000006044820152606490fd5b60405162461bcd60e51b815260206004820152601960248201527f5061796d656e7420616c7265616479207375626d6974746564000000000000006044820152606490fd5b60405162461bcd60e51b815260206004820152600e60248201526d2737ba103a3432903bb4b73732b960911b6044820152606490fd5b346103bc576080513660031901126103bc576020600d54604051908152f35b346103bc576080513660031901126103bc576020601c54604051908152f35b346103bc576080513660031901126103bc576020602454604051908152f35b346103bc5760203660031901126103bc57613633613edc565b61364860018060a01b036004541633146143a0565b60158054610100600160a81b031916600883901b610100600160a81b03161790556080516001600160a01b03909116907f3df77beb5db05fcdd70a30fc8adf3f83f9501b68579455adbd100b81809403949080a260805180f35b346103bc576080513660031901126103bc576136c660ff60045460a01c1615614234565b600b54421061372657601b54610100906136ea600882901c60ff1661081881614176565b61ff00191617601b55604051600181527fa6dcc92f45df25789d5639b7a0c97ba1edf3bb1c0b5dd3376fd96a0db87c464290602090a160805180f35b60405162461bcd60e51b815260206004820152601260248201527120bab1ba34b7b71039ba34b6361037b832b760711b6044820152606490fd5b346103bc576080513660031901126103bc5761377a61457c565b61378c60ff60045460a01c1615614234565b6137a160018060a01b03600554163314614272565b600c54421115613c0a57601b546137c46001600883901c60ff16612c7181614176565b601c5415613bd85761ff00191661020017601b55604051600281527fa6dcc92f45df25789d5639b7a0c97ba1edf3bb1c0b5dd3376fd96a0db87c464290602090a1608051808060001980825b601c548510156139a357613823856140a4565b60018060a01b0391549060031b1c16918260805152601e6020526040608051209460038601805460ff8116156138b8575050613860600291614344565b9501549181831015613896576001600160a01b03811661388a575b505060019091945b0193613810565b9650925060018761387b565b959190928482106138ac575b5050600190613883565b965092506001876138a2565b62ff0000191662010000179055600554608051600d5494989297509294600194929390926138fa92829182918291906001600160a01b03165af1611e6e614204565b600d546005546040805192835260a086901b8690039091166001600160a01b0316602083015282917f629864fafe7008a0b7eee7774c68adc1f42dc9416f80ccbd02b555fd5a7d7b4a9190a27fba400dc4b57a09e3a1d131ac25f7d9bfe6703f3606606bc06d7945c05c1c0e02606060405160208152601c60208201527f446964206e6f742072657665616c2077697468696e2077696e646f77000000006040820152a2613883565b6001600160a01b031694929350918415613b9357602080546001600160a01b03191686179055602183905560228390556001600160a01b03169081613b49575b5050426014556139f560125442614353565b6013556080515b601c54811015613b0e57613a0f816140a4565b60018060a01b0391549060031b1c16908160805152601e602052600360406080512001805460ff811680613b00575b613a50575b5050600191505b016139fc565b868414613af55762ff0000191662010000179055608051600d54819081908190865af1613a7b614204565b5015613ab8576001917fa09244c122a83074363635dc89ce0098166c2f74827960ff64a7c8e6ad1c57a26020600d54604051908152a28580613a43565b60405162461bcd60e51b815260206004820152601560248201527411195c1bdcda5d081c99599d5b990819985a5b1959605a1b6044820152606490fd5b505060019150613a4a565b5060ff8160101c1615613a3e565b506040907f866efae43947560fe9d0de9013bc323d5718730d5c1543261b48a7bcb0717b939282519182526020820152a26080516001815580f35b60207f83a0fa272dd7e5c2db3c1d6dfced99d99cd55fa485b72fd30081de99042adfde91836001600160601b0360a01b602354161760235580602455604051908152a283806139e3565b60405162461bcd60e51b815260206004820152601a60248201527f4e6f2076616c696420626964732061667465722072657665616c0000000000006044820152606490fd5b60405162461bcd60e51b815260206004820152600a6024820152694e6f206269646465727360b01b6044820152606490fd5b60405162461bcd60e51b815260206004820152601860248201527f52657665616c2077696e646f77206e6f7420636c6f73656400000000000000006044820152606490fd5b346103bc576080513660031901126103bc5760195460405160089190911c6001600160a01b03168152602090f35b346103bc576080513660031901126103bc57602060ff601954166040519015158152f35b346103bc5760203660031901126103bc57613cba613edc565b6004546001600160a01b031633148015613e87575b15613e425760195460ff8116613e065760019060ff1916176019556017546080516017556050810281810460501482151715611bc6576064613d13910480926141c6565b6080516001600160a01b039093169280808085875af1613d31614204565b5015613dc85780613d73575b7f38d7fca05aa360eda1aa67618bfe4c77ed78678b63959e1a9db782a5aba374659160409182519182526020820152a260805180f35b6080518080808461dead5af1613d87614204565b50613d3d5760405162461bcd60e51b8152602060048201526014602482015273109d5c9b881d1c985b9cd9995c8819985a5b195960621b6044820152606490fd5b60405162461bcd60e51b8152602060048201526016602482015275159a58dd1a5b481d1c985b9cd9995c8819985a5b195960521b6044820152606490fd5b60405162461bcd60e51b8152602060048201526014602482015273109bdb9908185b1c9958591e481cdb185cda195960621b6044820152606490fd5b60405162461bcd60e51b815260206004820152601c60248201527f4e6f7420617574686f72697a656420746f20736c61736820626f6e64000000006044820152606490fd5b506015543360089190911c6001600160a01b031614613ccf565b346103bc576080513660031901126103bc576020601454604051908152f35b346103bc576080513660031901126103bc57602090601a548152f35b600435906001600160a01b0382168203613ef257565b600080fd5b906020808351928381520192019060005b818110613f155750505090565b82516001600160a01b0316845260209384019390920191600101613f08565b90600182811c92168015613f64575b6020831014613f4e57565b634e487b7160e01b600052602260045260246000fd5b91607f1691613f43565b60009291815491613f7e83613f34565b8083529260018116908115613fd45750600114613f9a57505050565b60009081526020812093945091925b838310613fba575060209250010190565b600181602092949394548385870101520191019190613fa9565b915050602093945060ff929192191683830152151560051b010190565b90601f801991011681019081106001600160401b0382111761401257604052565b634e487b7160e01b600052604160045260246000fd5b60005b83811061403b5750506000910152565b818101518382015260200161402b565b9060209161406481518092818552858086019101614028565b601f01601f1916010190565b906020808351928381520192019060005b81811061408e5750505090565b8251845260209384019390920191600101614081565b601c548110156140bf57601c60005260206000200190600090565b634e487b7160e01b600052603260045260246000fd5b6010548110156140bf57601060005260206000200190600090565b9080602083519182815201916020808360051b8301019401926000915b83831061411c57505050505090565b909192939460208061413a600193601f19868203018752895161404b565b9701930193019193929061410d565b9181601f84011215613ef2578235916001600160401b038311613ef25760208381860195010111613ef257565b6004111561418057565b634e487b7160e01b600052602160045260246000fd5b9181601f84011215613ef2578235916001600160401b038311613ef2576020808501948460051b010111613ef257565b919082039182116141d357565b634e487b7160e01b600052601160045260246000fd5b6001600160401b03811161401257601f01601f191660200190565b3d1561422f573d90614215826141e9565b916142236040519384613ff1565b82523d6000602084013e565b606090565b1561423b57565b60405162461bcd60e51b815260206004820152600f60248201526e10dbdb9d1c9858dd081c185d5cd959608a1b6044820152606490fd5b1561427957565b60405162461bcd60e51b815260206004820152601760248201527f4e6f74207468652061756374696f6e2063726561746f720000000000000000006044820152606490fd5b156142c557565b60405162461bcd60e51b81526020600482015260136024820152724e6f7420696e2052455645414c20706861736560681b6044820152606490fd5b1561430757565b60405162461bcd60e51b815260206004820152601560248201527414db185cda081d1c985b9cd9995c8819985a5b1959605a1b6044820152606490fd5b60001981146141d35760010190565b919082018092116141d357565b1561436757565b60405162461bcd60e51b81526020600482015260116024820152704e6f7420696e204f50454e20706861736560781b6044820152606490fd5b156143a757565b60405162461bcd60e51b81526020600482015260096024820152682737ba1030b236b4b760b91b6044820152606490fd5b90816020910312613ef257518015158103613ef25790565b156143f757565b60405162461bcd60e51b815260206004820152601a60248201527f4e6f7420612077686974656c697374656420737570706c6965720000000000006044820152606490fd5b1561444357565b60405162461bcd60e51b815260206004820152600a6024820152692737ba103bb4b73732b960b11b6044820152606490fd5b6001600160401b0381116140125760051b60200190565b80518210156140bf5760209160051b010190565b9291926144ac826141e9565b916144ba6040519384613ff1565b829481845281830111613ef2578281602093846000960137010152565b60ff601b5460081c166144e981614176565b8015806144fe575b6144f85790565b50600190565b50600b544210156144f1565b818110614515575050565b6000815560010161450a565b9190601f811161453057505050565b61455b926000526020600020906020601f840160051c830193106117dc57601f0160051c019061450a565b565b600b5480421015614576576145739042906141c6565b90565b50600090565b60026000541461458d576002600055565b633ee5aeb560e01b60005260046000fd5b307f00000000000000000000000000000000000000000000000000000000000000006001600160a01b03161480614691575b156145f9577f000000000000000000000000000000000000000000000000000000000000000090565b60405160208101907f8b73c3c69bb8fe3d512ecc4cf759cc79239f7b179b0ffacaa9a75d522b39400f82527f000000000000000000000000000000000000000000000000000000000000000060408201527f000000000000000000000000000000000000000000000000000000000000000060608201524660808201523060a082015260a0815261468b60c082613ff1565b51902090565b507f000000000000000000000000000000000000000000000000000000000000000046146145d0565b60ff81146147045760ff811690601f82116146f35760408051926146de8285613ff1565b6020808552840191601f190136833783525290565b632cd44ac360e21b60005260046000fd5b5060405161457381610c8b816001613f6e565b60ff811461473b5760ff811690601f82116146f35760408051926146de8285613ff1565b5060405161457381610c8b816002613f6e565b815191906041830361477f5761477892506020820151906060604084015193015160001a9061480c565b9192909190565b505060009160029190565b61479381614176565b8061479c575050565b6147a581614176565b600181036147be5763f645eedf60e01b60005260046000fd5b6147c781614176565b600281036147e4575063fce698f760e01b60005260045260246000fd5b6003906147f081614176565b146147f85750565b6335e2f38360e21b60005260045260246000fd5b91907f7fffffffffffffffffffffffffffffff5d576e7357a4501ddfe92f46681b20a08411614895579160209360809260ff60009560405194855216868401526040830152606082015282805260015afa15614889576000516001600160a01b0381161561487d5790600090600090565b50600090600190600090565b6040513d6000823e3d90fd5b5050506000916003919056fe1b6847dc741a1b0cd08d278845f9d819d87b734759afb55fe2de5cb82a9ae672a2646970667358221220285cf13a28ab7d7643bdd97e1f518b2bd0debed9d9ff056d8634bcd250f1c50964736f6c634300081e0033",
  "devdoc": {
    "errors": {
      "ECDSAInvalidSignature()": [
        {
          "details": "The signature derives the `address(0)`."
        }
      ],
      "ECDSAInvalidSignatureLength(uint256)": [
        {
          "details": "The signature has an invalid length."
        }
      ],
      "ECDSAInvalidSignatureS(bytes32)": [
        {
          "details": "The signature has an S value that is in the upper half order."
        }
      ],
      "ReentrancyGuardReentrantCall()": [
        {
          "details": "Unauthorized reentrant call."
        }
      ]
    },
    "events": {
      "EIP712DomainChanged()": {
        "details": "MAY be emitted to signal that the domain could have changed."
      }
    },
    "kind": "dev",
    "methods": {
      "constructor": {
        "details": "Implementation constructor: bakes EIP-712 name/version into bytecode      and locks the implementation so it cannot itself be used as a vault.      All real vault state is set via initialize() after factory clones this."
      },
      "eip712Domain()": {
        "details": "See {IERC-5267}."
      },
      "initialize(address,address,address,bytes32,uint256,address,uint256,bool,string[],address,uint256,uint256,address,string,string,uint256,uint256,uint256,address[],string,uint256)": {
        "details": "Called by ShadowBidFactory immediately after EIP-1167 cloning.      Replaces the old constructor  calldata params save gas vs memory."
      }
    },
    "title": "ShadowBidVault",
    "version": 1
  },
  "userdoc": {
    "kind": "user",
    "methods": {},
    "notice": "Sealed-bid RWA auction with institutional compliance on ADI Chain SECURITY FEATURES: - KYB/AML: All bidders must be factory-verified institutions - Creator bond: Auction opener posts 0.5% of asset value as anti-fraud bond - Conflict attestation: EIP-712 signed declaration before bidding - Second-bidder fallback: If winner defaults, second-place takes over - Oracle delivery: Real-world asset transfer confirmed by trusted oracle - Payment escrow: Winner's full payment held until delivery confirmed - Admin pause: Emergency halt for compliance incidents",
    "version": 1
  },
  "storageLayout": {
    "storage": [
      {
        "astId": 1402,
        "contract": "contracts/ShadowBidVault.sol:ShadowBidVault",
        "label": "_status",
        "offset": 0,
        "slot": "0",
        "type": "t_uint256"
      },
      {
        "astId": 2427,
        "contract": "contracts/ShadowBidVault.sol:ShadowBidVault",
        "label": "_nameFallback",
        "offset": 0,
        "slot": "1",
        "type": "t_string_storage"
      },
      {
        "astId": 2429,
        "contract": "contracts/ShadowBidVault.sol:ShadowBidVault",
        "label": "_versionFallback",
        "offset": 0,
        "slot": "2",
        "type": "t_string_storage"
      },
      {
        "astId": 4412,
        "contract": "contracts/ShadowBidVault.sol:ShadowBidVault",
        "label": "factory",
        "offset": 0,
        "slot": "3",
        "type": "t_contract(IShadowBidFactory)4401"
      },
      {
        "astId": 4414,
        "contract": "contracts/ShadowBidVault.sol:ShadowBidVault",
        "label": "platformAdmin",
        "offset": 0,
        "slot": "4",
        "type": "t_address"
      },
      {
        "astId": 4416,
        "contract": "contracts/ShadowBidVault.sol:ShadowBidVault",
        "label": "paused",
        "offset": 20,
        "slot": "4",
        "type": "t_bool"
      },
      {
        "astId": 4418,
        "contract": "contracts/ShadowBidVault.sol:ShadowBidVault",
        "label": "buyer",
        "offset": 0,
        "slot": "5",
        "type": "t_address"
      },
      {
        "astId": 4420,
        "contract": "contracts/ShadowBidVault.sol:ShadowBidVault",
        "label": "title",
        "offset": 0,
        "slot": "6",
        "type": "t_string_storage"
      },
      {
        "astId": 4422,
        "contract": "contracts/ShadowBidVault.sol:ShadowBidVault",
        "label": "description",
        "offset": 0,
        "slot": "7",
        "type": "t_string_storage"
      },
      {
        "astId": 4424,
        "contract": "contracts/ShadowBidVault.sol:ShadowBidVault",
        "label": "buyerECIESPubKey",
        "offset": 0,
        "slot": "8",
        "type": "t_string_storage"
      },
      {
        "astId": 4426,
        "contract": "contracts/ShadowBidVault.sol:ShadowBidVault",
        "label": "assetProofHash",
        "offset": 0,
        "slot": "9",
        "type": "t_bytes32"
      },
      {
        "astId": 4428,
        "contract": "contracts/ShadowBidVault.sol:ShadowBidVault",
        "label": "declaredAssetValue",
        "offset": 0,
        "slot": "10",
        "type": "t_uint256"
      },
      {
        "astId": 4430,
        "contract": "contracts/ShadowBidVault.sol:ShadowBidVault",
        "label": "closeTime",
        "offset": 0,
        "slot": "11",
        "type": "t_uint256"
      },
      {
        "astId": 4432,
        "contract": "contracts/ShadowBidVault.sol:ShadowBidVault",
        "label": "revealDeadline",
        "offset": 0,
        "slot": "12",
        "type": "t_uint256"
      },
      {
        "astId": 4434,
        "contract": "contracts/ShadowBidVault.sol:ShadowBidVault",
        "label": "depositRequired",
        "offset": 0,
        "slot": "13",
        "type": "t_uint256"
      },
      {
        "astId": 4436,
        "contract": "contracts/ShadowBidVault.sol:ShadowBidVault",
        "label": "biddingStartTime",
        "offset": 0,
        "slot": "14",
        "type": "t_uint256"
      },
      {
        "astId": 4438,
        "contract": "contracts/ShadowBidVault.sol:ShadowBidVault",
        "label": "requiresAccreditation",
        "offset": 0,
        "slot": "15",
        "type": "t_bool"
      },
      {
        "astId": 4441,
        "contract": "contracts/ShadowBidVault.sol:ShadowBidVault",
        "label": "allowedJurisdictions",
        "offset": 0,
        "slot": "16",
        "type": "t_array(t_string_storage)dyn_storage"
      },
      {
        "astId": 4443,
        "contract": "contracts/ShadowBidVault.sol:ShadowBidVault",
        "label": "settlementToken",
        "offset": 0,
        "slot": "17",
        "type": "t_address"
      },
      {
        "astId": 4445,
        "contract": "contracts/ShadowBidVault.sol:ShadowBidVault",
        "label": "settlementWindow",
        "offset": 0,
        "slot": "18",
        "type": "t_uint256"
      },
      {
        "astId": 4447,
        "contract": "contracts/ShadowBidVault.sol:ShadowBidVault",
        "label": "settlementDeadline",
        "offset": 0,
        "slot": "19",
        "type": "t_uint256"
      },
      {
        "astId": 4449,
        "contract": "contracts/ShadowBidVault.sol:ShadowBidVault",
        "label": "settlementTime",
        "offset": 0,
        "slot": "20",
        "type": "t_uint256"
      },
      {
        "astId": 4451,
        "contract": "contracts/ShadowBidVault.sol:ShadowBidVault",
        "label": "paymentSubmitted",
        "offset": 0,
        "slot": "21",
        "type": "t_bool"
      },
      {
        "astId": 4453,
        "contract": "contracts/ShadowBidVault.sol:ShadowBidVault",
        "label": "oracle",
        "offset": 1,
        "slot": "21",
        "type": "t_address"
      },
      {
        "astId": 4455,
        "contract": "contracts/ShadowBidVault.sol:ShadowBidVault",
        "label": "delivered",
        "offset": 21,
        "slot": "21",
        "type": "t_bool"
      },
      {
        "astId": 4457,
        "contract": "contracts/ShadowBidVault.sol:ShadowBidVault",
        "label": "oracleTimeout",
        "offset": 0,
        "slot": "22",
        "type": "t_uint256"
      },
      {
        "astId": 4459,
        "contract": "contracts/ShadowBidVault.sol:ShadowBidVault",
        "label": "creatorBond",
        "offset": 0,
        "slot": "23",
        "type": "t_uint256"
      },
      {
        "astId": 4461,
        "contract": "contracts/ShadowBidVault.sol:ShadowBidVault",
        "label": "bondReleaseTime",
        "offset": 0,
        "slot": "24",
        "type": "t_uint256"
      },
      {
        "astId": 4463,
        "contract": "contracts/ShadowBidVault.sol:ShadowBidVault",
        "label": "bondSlashed",
        "offset": 0,
        "slot": "25",
        "type": "t_bool"
      },
      {
        "astId": 4465,
        "contract": "contracts/ShadowBidVault.sol:ShadowBidVault",
        "label": "assetTokenContract",
        "offset": 1,
        "slot": "25",
        "type": "t_address"
      },
      {
        "astId": 4467,
        "contract": "contracts/ShadowBidVault.sol:ShadowBidVault",
        "label": "assetTokenId",
        "offset": 0,
        "slot": "26",
        "type": "t_uint256"
      },
      {
        "astId": 4469,
        "contract": "contracts/ShadowBidVault.sol:ShadowBidVault",
        "label": "assetTokenEscrowed",
        "offset": 0,
        "slot": "27",
        "type": "t_bool"
      },
      {
        "astId": 4477,
        "contract": "contracts/ShadowBidVault.sol:ShadowBidVault",
        "label": "phase",
        "offset": 1,
        "slot": "27",
        "type": "t_enum(Phase)4474"
      },
      {
        "astId": 4493,
        "contract": "contracts/ShadowBidVault.sol:ShadowBidVault",
        "label": "suppliers",
        "offset": 0,
        "slot": "28",
        "type": "t_array(t_address)dyn_storage"
      },
      {
        "astId": 4497,
        "contract": "contracts/ShadowBidVault.sol:ShadowBidVault",
        "label": "isAllowedSupplier",
        "offset": 0,
        "slot": "29",
        "type": "t_mapping(t_address,t_bool)"
      },
      {
        "astId": 4502,
        "contract": "contracts/ShadowBidVault.sol:ShadowBidVault",
        "label": "bids",
        "offset": 0,
        "slot": "30",
        "type": "t_mapping(t_address,t_struct(Bid)4490_storage)"
      },
      {
        "astId": 4506,
        "contract": "contracts/ShadowBidVault.sol:ShadowBidVault",
        "label": "conflictAttestationSubmitted",
        "offset": 0,
        "slot": "31",
        "type": "t_mapping(t_address,t_bool)"
      },
      {
        "astId": 4508,
        "contract": "contracts/ShadowBidVault.sol:ShadowBidVault",
        "label": "winner",
        "offset": 0,
        "slot": "32",
        "type": "t_address"
      },
      {
        "astId": 4510,
        "contract": "contracts/ShadowBidVault.sol:ShadowBidVault",
        "label": "winningPrice",
        "offset": 0,
        "slot": "33",
        "type": "t_uint256"
      },
      {
        "astId": 4512,
        "contract": "contracts/ShadowBidVault.sol:ShadowBidVault",
        "label": "winningBidAmount",
        "offset": 0,
        "slot": "34",
        "type": "t_uint256"
      },
      {
        "astId": 4514,
        "contract": "contracts/ShadowBidVault.sol:ShadowBidVault",
        "label": "secondBidder",
        "offset": 0,
        "slot": "35",
        "type": "t_address"
      },
      {
        "astId": 4516,
        "contract": "contracts/ShadowBidVault.sol:ShadowBidVault",
        "label": "secondBidAmount",
        "offset": 0,
        "slot": "36",
        "type": "t_uint256"
      },
      {
        "astId": 4725,
        "contract": "contracts/ShadowBidVault.sol:ShadowBidVault",
        "label": "_initialized",
        "offset": 0,
        "slot": "37",
        "type": "t_bool"
      }
    ],
    "types": {
      "t_address": {
        "encoding": "inplace",
        "label": "address",
        "numberOfBytes": "20"
      },
      "t_array(t_address)dyn_storage": {
        "base": "t_address",
        "encoding": "dynamic_array",
        "label": "address[]",
        "numberOfBytes": "32"
      },
      "t_array(t_string_storage)dyn_storage": {
        "base": "t_string_storage",
        "encoding": "dynamic_array",
        "label": "string[]",
        "numberOfBytes": "32"
      },
      "t_bool": {
        "encoding": "inplace",
        "label": "bool",
        "numberOfBytes": "1"
      },
      "t_bytes32": {
        "encoding": "inplace",
        "label": "bytes32",
        "numberOfBytes": "32"
      },
      "t_contract(IShadowBidFactory)4401": {
        "encoding": "inplace",
        "label": "contract IShadowBidFactory",
        "numberOfBytes": "20"
      },
      "t_enum(Phase)4474": {
        "encoding": "inplace",
        "label": "enum ShadowBidVault.Phase",
        "numberOfBytes": "1"
      },
      "t_mapping(t_address,t_bool)": {
        "encoding": "mapping",
        "key": "t_address",
        "label": "mapping(address => bool)",
        "numberOfBytes": "32",
        "value": "t_bool"
      },
      "t_mapping(t_address,t_struct(Bid)4490_storage)": {
        "encoding": "mapping",
        "key": "t_address",
        "label": "mapping(address => struct ShadowBidVault.Bid)",
        "numberOfBytes": "32",
        "value": "t_struct(Bid)4490_storage"
      },
      "t_string_storage": {
        "encoding": "bytes",
        "label": "string",
        "numberOfBytes": "32"
      },
      "t_struct(Bid)4490_storage": {
        "encoding": "inplace",
        "label": "struct ShadowBidVault.Bid",
        "members": [
          {
            "astId": 4479,
            "contract": "contracts/ShadowBidVault.sol:ShadowBidVault",
            "label": "commitHash",
            "offset": 0,
            "slot": "0",
            "type": "t_bytes32"
          },
          {
            "astId": 4481,
            "contract": "contracts/ShadowBidVault.sol:ShadowBidVault",
            "label": "storageRoot",
            "offset": 0,
            "slot": "1",
            "type": "t_string_storage"
          },
          {
            "astId": 4483,
            "contract": "contracts/ShadowBidVault.sol:ShadowBidVault",
            "label": "revealedPrice",
            "offset": 0,
            "slot": "2",
            "type": "t_uint256"
          },
          {
            "astId": 4485,
            "contract": "contracts/ShadowBidVault.sol:ShadowBidVault",
            "label": "revealed",
            "offset": 0,
            "slot": "3",
            "type": "t_bool"
          },
          {
            "astId": 4487,
            "contract": "contracts/ShadowBidVault.sol:ShadowBidVault",
            "label": "depositPaid",
            "offset": 1,
            "slot": "3",
            "type": "t_bool"
          },
          {
            "astId": 4489,
            "contract": "contracts/ShadowBidVault.sol:ShadowBidVault",
            "label": "depositReturned",
            "offset": 2,
            "slot": "3",
            "type": "t_bool"
          }
        ],
        "numberOfBytes": "128"
      },
      "t_uint256": {
        "encoding": "inplace",
        "label": "uint256",
        "numberOfBytes": "32"
      }
    }
  }
}