{
  "address": "0xEeeF70011E37EAe0Ec00B70a85Fc7218DF685d3b",
  "abi": [
    {
      "inputs": [
        {
          "internalType": "address",
          "name": "_vaultImpl",
          "type": "address"
        }
      ],
      "stateMutability": "nonpayable",
      "type": "constructor"
    },
    {
      "inputs": [],
      "name": "AccessControlBadConfirmation",
      "type": "error"
    },
    {
      "inputs": [
        {
          "internalType": "address",
          "name": "account",
          "type": "address"
        },
        {
          "internalType": "bytes32",
          "name": "neededRole",
          "type": "bytes32"
        }
      ],
      "name": "AccessControlUnauthorizedAccount",
      "type": "error"
    },
    {
      "inputs": [],
      "name": "ERC1167FailedCreateClone",
      "type": "error"
    },
    {
      "anonymous": false,
      "inputs": [
        {
          "indexed": true,
          "internalType": "address",
          "name": "inst",
          "type": "address"
        }
      ],
      "name": "InstitutionRevoked",
      "type": "event"
    },
    {
      "anonymous": false,
      "inputs": [
        {
          "indexed": true,
          "internalType": "address",
          "name": "inst",
          "type": "address"
        },
        {
          "indexed": false,
          "internalType": "bool",
          "name": "accredited",
          "type": "bool"
        }
      ],
      "name": "InstitutionVerified",
      "type": "event"
    },
    {
      "anonymous": false,
      "inputs": [
        {
          "indexed": true,
          "internalType": "bytes32",
          "name": "role",
          "type": "bytes32"
        },
        {
          "indexed": true,
          "internalType": "bytes32",
          "name": "previousAdminRole",
          "type": "bytes32"
        },
        {
          "indexed": true,
          "internalType": "bytes32",
          "name": "newAdminRole",
          "type": "bytes32"
        }
      ],
      "name": "RoleAdminChanged",
      "type": "event"
    },
    {
      "anonymous": false,
      "inputs": [
        {
          "indexed": true,
          "internalType": "bytes32",
          "name": "role",
          "type": "bytes32"
        },
        {
          "indexed": true,
          "internalType": "address",
          "name": "account",
          "type": "address"
        },
        {
          "indexed": true,
          "internalType": "address",
          "name": "sender",
          "type": "address"
        }
      ],
      "name": "RoleGranted",
      "type": "event"
    },
    {
      "anonymous": false,
      "inputs": [
        {
          "indexed": true,
          "internalType": "bytes32",
          "name": "role",
          "type": "bytes32"
        },
        {
          "indexed": true,
          "internalType": "address",
          "name": "account",
          "type": "address"
        },
        {
          "indexed": true,
          "internalType": "address",
          "name": "sender",
          "type": "address"
        }
      ],
      "name": "RoleRevoked",
      "type": "event"
    },
    {
      "anonymous": false,
      "inputs": [
        {
          "indexed": true,
          "internalType": "address",
          "name": "vault",
          "type": "address"
        },
        {
          "indexed": true,
          "internalType": "address",
          "name": "buyer",
          "type": "address"
        },
        {
          "indexed": false,
          "internalType": "string",
          "name": "title",
          "type": "string"
        },
        {
          "indexed": false,
          "internalType": "uint256",
          "name": "closeTime",
          "type": "uint256"
        },
        {
          "indexed": false,
          "internalType": "uint256",
          "name": "depositRequired",
          "type": "uint256"
        }
      ],
      "name": "VaultCreated",
      "type": "event"
    },
    {
      "inputs": [],
      "name": "ADMIN_ROLE",
      "outputs": [
        {
          "internalType": "bytes32",
          "name": "",
          "type": "bytes32"
        }
      ],
      "stateMutability": "view",
      "type": "function"
    },
    {
      "inputs": [],
      "name": "BUYER_ROLE",
      "outputs": [
        {
          "internalType": "bytes32",
          "name": "",
          "type": "bytes32"
        }
      ],
      "stateMutability": "view",
      "type": "function"
    },
    {
      "inputs": [],
      "name": "DEFAULT_ADMIN_ROLE",
      "outputs": [
        {
          "internalType": "bytes32",
          "name": "",
          "type": "bytes32"
        }
      ],
      "stateMutability": "view",
      "type": "function"
    },
    {
      "inputs": [
        {
          "internalType": "address",
          "name": "",
          "type": "address"
        }
      ],
      "name": "affiliatedWith",
      "outputs": [
        {
          "internalType": "address",
          "name": "",
          "type": "address"
        }
      ],
      "stateMutability": "view",
      "type": "function"
    },
    {
      "inputs": [
        {
          "internalType": "uint256",
          "name": "",
          "type": "uint256"
        }
      ],
      "name": "allVaults",
      "outputs": [
        {
          "internalType": "address",
          "name": "",
          "type": "address"
        }
      ],
      "stateMutability": "view",
      "type": "function"
    },
    {
      "inputs": [
        {
          "internalType": "string",
          "name": "_title",
          "type": "string"
        },
        {
          "internalType": "string",
          "name": "_description",
          "type": "string"
        },
        {
          "internalType": "uint256",
          "name": "_closeTime",
          "type": "uint256"
        },
        {
          "internalType": "uint256",
          "name": "_revealWindow",
          "type": "uint256"
        },
        {
          "internalType": "uint256",
          "name": "_depositRequired",
          "type": "uint256"
        },
        {
          "internalType": "address[]",
          "name": "_allowedSuppliers",
          "type": "address[]"
        },
        {
          "internalType": "string",
          "name": "_buyerECIESPubKey",
          "type": "string"
        },
        {
          "internalType": "address",
          "name": "_oracle",
          "type": "address"
        },
        {
          "internalType": "bytes32",
          "name": "_assetProofHash",
          "type": "bytes32"
        },
        {
          "internalType": "uint256",
          "name": "_settlementWindow",
          "type": "uint256"
        },
        {
          "internalType": "uint256",
          "name": "_oracleTimeout",
          "type": "uint256"
        },
        {
          "internalType": "bool",
          "name": "_requiresAccreditation",
          "type": "bool"
        },
        {
          "internalType": "string[]",
          "name": "_allowedJurisdictions",
          "type": "string[]"
        },
        {
          "internalType": "address",
          "name": "_settlementToken",
          "type": "address"
        },
        {
          "internalType": "uint256",
          "name": "_declaredAssetValue",
          "type": "uint256"
        },
        {
          "internalType": "uint256",
          "name": "_reviewWindowSeconds",
          "type": "uint256"
        }
      ],
      "name": "createVault",
      "outputs": [
        {
          "internalType": "address",
          "name": "vaultAddr",
          "type": "address"
        }
      ],
      "stateMutability": "payable",
      "type": "function"
    },
    {
      "inputs": [],
      "name": "getAllVaults",
      "outputs": [
        {
          "internalType": "address[]",
          "name": "",
          "type": "address[]"
        }
      ],
      "stateMutability": "view",
      "type": "function"
    },
    {
      "inputs": [
        {
          "internalType": "bytes32",
          "name": "role",
          "type": "bytes32"
        }
      ],
      "name": "getRoleAdmin",
      "outputs": [
        {
          "internalType": "bytes32",
          "name": "",
          "type": "bytes32"
        }
      ],
      "stateMutability": "view",
      "type": "function"
    },
    {
      "inputs": [
        {
          "internalType": "address",
          "name": "b",
          "type": "address"
        }
      ],
      "name": "getVaultsByBuyer",
      "outputs": [
        {
          "internalType": "address[]",
          "name": "",
          "type": "address[]"
        }
      ],
      "stateMutability": "view",
      "type": "function"
    },
    {
      "inputs": [
        {
          "internalType": "address",
          "name": "account",
          "type": "address"
        }
      ],
      "name": "grantAdminRole",
      "outputs": [],
      "stateMutability": "nonpayable",
      "type": "function"
    },
    {
      "inputs": [
        {
          "internalType": "address",
          "name": "account",
          "type": "address"
        }
      ],
      "name": "grantBuyerRole",
      "outputs": [],
      "stateMutability": "nonpayable",
      "type": "function"
    },
    {
      "inputs": [
        {
          "internalType": "bytes32",
          "name": "role",
          "type": "bytes32"
        },
        {
          "internalType": "address",
          "name": "account",
          "type": "address"
        }
      ],
      "name": "grantRole",
      "outputs": [],
      "stateMutability": "nonpayable",
      "type": "function"
    },
    {
      "inputs": [
        {
          "internalType": "bytes32",
          "name": "role",
          "type": "bytes32"
        },
        {
          "internalType": "address",
          "name": "account",
          "type": "address"
        }
      ],
      "name": "hasRole",
      "outputs": [
        {
          "internalType": "bool",
          "name": "",
          "type": "bool"
        }
      ],
      "stateMutability": "view",
      "type": "function"
    },
    {
      "inputs": [
        {
          "internalType": "address",
          "name": "",
          "type": "address"
        }
      ],
      "name": "institutionJurisdiction",
      "outputs": [
        {
          "internalType": "string",
          "name": "",
          "type": "string"
        }
      ],
      "stateMutability": "view",
      "type": "function"
    },
    {
      "inputs": [
        {
          "internalType": "address",
          "name": "",
          "type": "address"
        }
      ],
      "name": "isAccredited",
      "outputs": [
        {
          "internalType": "bool",
          "name": "",
          "type": "bool"
        }
      ],
      "stateMutability": "view",
      "type": "function"
    },
    {
      "inputs": [
        {
          "internalType": "address",
          "name": "",
          "type": "address"
        }
      ],
      "name": "isVault",
      "outputs": [
        {
          "internalType": "bool",
          "name": "",
          "type": "bool"
        }
      ],
      "stateMutability": "view",
      "type": "function"
    },
    {
      "inputs": [
        {
          "internalType": "bytes32",
          "name": "role",
          "type": "bytes32"
        },
        {
          "internalType": "address",
          "name": "callerConfirmation",
          "type": "address"
        }
      ],
      "name": "renounceRole",
      "outputs": [],
      "stateMutability": "nonpayable",
      "type": "function"
    },
    {
      "inputs": [
        {
          "internalType": "address",
          "name": "account",
          "type": "address"
        }
      ],
      "name": "revokeBuyerRole",
      "outputs": [],
      "stateMutability": "nonpayable",
      "type": "function"
    },
    {
      "inputs": [
        {
          "internalType": "address",
          "name": "inst",
          "type": "address"
        }
      ],
      "name": "revokeInstitution",
      "outputs": [],
      "stateMutability": "nonpayable",
      "type": "function"
    },
    {
      "inputs": [
        {
          "internalType": "bytes32",
          "name": "role",
          "type": "bytes32"
        },
        {
          "internalType": "address",
          "name": "account",
          "type": "address"
        }
      ],
      "name": "revokeRole",
      "outputs": [],
      "stateMutability": "nonpayable",
      "type": "function"
    },
    {
      "inputs": [
        {
          "internalType": "address",
          "name": "bidder",
          "type": "address"
        },
        {
          "internalType": "address",
          "name": "withCreator",
          "type": "address"
        }
      ],
      "name": "setAffiliated",
      "outputs": [],
      "stateMutability": "nonpayable",
      "type": "function"
    },
    {
      "inputs": [
        {
          "internalType": "bytes4",
          "name": "interfaceId",
          "type": "bytes4"
        }
      ],
      "name": "supportsInterface",
      "outputs": [
        {
          "internalType": "bool",
          "name": "",
          "type": "bool"
        }
      ],
      "stateMutability": "view",
      "type": "function"
    },
    {
      "inputs": [],
      "name": "vaultImpl",
      "outputs": [
        {
          "internalType": "address",
          "name": "",
          "type": "address"
        }
      ],
      "stateMutability": "view",
      "type": "function"
    },
    {
      "inputs": [
        {
          "internalType": "address",
          "name": "",
          "type": "address"
        },
        {
          "internalType": "uint256",
          "name": "",
          "type": "uint256"
        }
      ],
      "name": "vaultsByBuyer",
      "outputs": [
        {
          "internalType": "address",
          "name": "",
          "type": "address"
        }
      ],
      "stateMutability": "view",
      "type": "function"
    },
    {
      "inputs": [
        {
          "internalType": "address",
          "name": "",
          "type": "address"
        }
      ],
      "name": "verified",
      "outputs": [
        {
          "internalType": "bool",
          "name": "",
          "type": "bool"
        }
      ],
      "stateMutability": "view",
      "type": "function"
    },
    {
      "inputs": [
        {
          "internalType": "address",
          "name": "inst",
          "type": "address"
        },
        {
          "internalType": "bool",
          "name": "accredited",
          "type": "bool"
        },
        {
          "internalType": "string",
          "name": "_jurisdiction",
          "type": "string"
        },
        {
          "internalType": "bytes",
          "name": "",
          "type": "bytes"
        }
      ],
      "name": "verifyInstitution",
      "outputs": [],
      "stateMutability": "nonpayable",
      "type": "function"
    }
  ],
  "transactionHash": "0x40fb757c7daebbc82de2357e6b813e85e266423c681618eafa774c52a34d4f08",
  "args": [
    "0x0271358Aa688Fe130775DcD6E374439B6DB4CF87"
  ],
  "numDeployments": 4,
  "solcInputHash": "f160fa618303404ac4787418c050bc93",
  "bytecode": "0x60a03461008f57601f611b0338819003918201601f19168301916001600160401b038311848410176100945780849260209460405283398101031261008f57516001600160a01b038116810361008f5760805261005b336100aa565b5061006533610126565b5061006f336101be565b5060405161182c908161025782396080518181816102880152610a100152f35b600080fd5b634e487b7160e01b600052604160045260246000fd5b6001600160a01b0381166000908152600080516020611ae3833981519152602052604090205460ff16610120576001600160a01b03166000818152600080516020611ae383398151915260205260408120805460ff19166001179055339190600080516020611a838339815191528180a4600190565b50600090565b6001600160a01b0381166000908152600080516020611ac3833981519152602052604090205460ff16610120576001600160a01b03166000818152600080516020611ac383398151915260205260408120805460ff191660011790553391907fa49807205ce4d355092ef5a8a18f56e8913cf4a201fbe287825b095693c2177590600080516020611a838339815191529080a4600190565b6001600160a01b0381166000908152600080516020611aa3833981519152602052604090205460ff16610120576001600160a01b03166000818152600080516020611aa383398151915260205260408120805460ff191660011790553391907ff8cd32ed93fc2f9fc78152a14807c9609af3d99c5fe4dc6b106a801aaddfe90e90600080516020611a838339815191529080a460019056fe61012080604052600436101561001457600080fd5b60006080526080513560e01c90816301ffc9a714611213575080630d6f1eb2146111b15780630db065f4146111705780631107f10d146111475780631881ec4d1461111e5780631c67494e14611097578063248a9ca314611062578063285038c41461101e5780632d598d7b14610fdd5780632f2ff15d14610f9d57806336568abe14610f5557806347305f68146108a2578063652b9b41146108615780636c62ebc31461080357806375b238fc146107c75780637a01a1da1461079d5780638e772933146105555780639094a91e146104ec57806391d148541461049c57806397331bf914610419578063a217fddf146103fb578063abcd31ed14610366578063c634b78e14610303578063d547741f146102b7578063ec1e31a0146102715763f20c9eb71461014457600080fd5b3461026b57602036600319011261026b576001600160a01b03610165611266565b16608051526004602052604060805120604051908160805182549261018984611367565b808452936001811690811561024957506001146101ff575b506101ae925003826113a1565b6040519060208252818151918260208301526080515b8381106101e7575050604091608051838284010152601f80199101168101030190f35b602082820181015160408784010152859350016101c4565b90506080929192515260206080512090608051915b81831061022d5750509060206101ae92820101386101a1565b6020919350806001915483858801015201910190918392610214565b9050602092506101ae94915060ff191682840152151560051b820101386101a1565b60805180fd5b3461026b5760805136600319011261026b576040517f00000000000000000000000000000000000000000000000000000000000000006001600160a01b03168152602090f35b3461026b57604036600319011261026b576102fc6004356102d6611281565b906102f76102f282600052600060205260016040600020015490565b61146c565b611734565b5060805180f35b3461026b57602036600319011261026b5761031c611266565b6080805180525160208181526040918290203360009081529152205460ff1615610349576102fc90611545565b63e2517d3f60e01b60805152336004526080516024526044608051fd5b3461026b57602036600319011261026b576001600160a01b03610387611266565b1660805152600760205260406080512060405190816020825491828152019160805152602060805120906080515b8181106103dc576103d8856103cc818703826113a1565b60405191829182611324565b0390f35b82546001600160a01b03168452602090930192600192830192016103b5565b3461026b5760805136600319011261026b5760206040516080518152f35b3461026b5760805136600319011261026b576040518060206005549182815201906005608051527f036b6384b5eca791c62761152d0c79bb0604c104a5fb6f4eb0703f3154bb3db0906080515b81811061047d576103d8856103cc818703826113a1565b82546001600160a01b0316845260209093019260019283019201610466565b3461026b57604036600319011261026b576104b5611281565b600435608051526080516020526040608051209060018060a01b0316600052602052602060ff604060002054166040519015158152f35b3461026b57602036600319011261026b5760043560055481101561026b5760055481101561053d5760808051600590525160208082209092015460405160039290921b1c6001600160a01b03168152f35b634e487b7160e01b6080515260326004526024608051fd5b3461026b57608036600319011261026b5761056e611266565b6024358015159081900361026b5760443567ffffffffffffffff811161026b5761059c9036906004016112c5565b9260643567ffffffffffffffff811161026b576105bd9036906004016112c5565b50506105c76113fa565b60018060a01b03169283608051526001602052604060805120600160ff198254161790558360805152600260205260406080512060ff1981541660ff8516179055836080515260046020526040608051209167ffffffffffffffff8211610785576106328354611367565b601f811161073a575b5060805190601f83116001146106aa579180602094927fc4fcedd564ae1cf0414bc7056387d4dd4437057d44911cb5b28cca79537184b196946080519261069f575b50508160011b916000199060031b1c19161790555b604051908152a260805180f35b01359050878061067d565b601f198316918460805152602060805120926080515b81811061072257509260019285927fc4fcedd564ae1cf0414bc7056387d4dd4437057d44911cb5b28cca79537184b198966020989610610708575b505050811b019055610692565b0135600019600384901b60f8161c191690558780806106fb565b919360206001819287870135815501950192016106c0565b8360805152602060805120601f840160051c8101916020851061077b575b601f0160051c01905b81811061076e575061063b565b6080518155600101610761565b9091508190610758565b634e487b7160e01b6080515260416004526024608051fd5b3461026b5760805136600319011261026b5760206040516000805160206117d78339815191528152f35b3461026b5760805136600319011261026b5760206040517fa49807205ce4d355092ef5a8a18f56e8913cf4a201fbe287825b095693c217758152f35b3461026b57604036600319011261026b5761081c611266565b610824611281565b9061082d6113fa565b608080516001600160a01b0392831690526003602052516040812080546001600160a01b0319169390921692909217905580f35b3461026b57602036600319011261026b576001600160a01b03610882611266565b16608051526006602052602060ff60406080512054166040519015158152f35b61020036600319011261026b5760043567ffffffffffffffff811161026b576108cf9036906004016112c5565b60a05260e05260243567ffffffffffffffff811161026b576108f59036906004016112c5565b60a43567ffffffffffffffff811161026b576109159036906004016112f3565b92909160c43567ffffffffffffffff811161026b576109389036906004016112c5565b92909160e4356001600160a01b038116810361026b576101643590811515820361026b576101843567ffffffffffffffff811161026b5761097d9036906004016112f3565b926101a435926001600160a01b038416840361026b57608080516000805160206117d78339815191529052805160208181526040808320339093529190529051205460ff1615610f2c5761012c4201804211610f14576044351115610ecf57610e1060643510610e8a5760018b10610e45576001600160a01b03841615610e00576e5af43d82803e903d91602b57fd5bf37f0000000000000000000000000000000000000000000000000000000000000000763d602d80600a3d3981f3363d3d373d3d3d363d7300000062ffffff8260881c16176080515260781b1760205260018060a01b0360376009608051f01660c05260c05115610ded5760c0513b1561026b5784916040516101005263bcdf8a1560e01b61010051526102a461010051019130600461010051015233602461010051015260018060a01b031660446101005101526101043560646101005101526101c435608461010051015260805160a461010051015260805160c4610100510152151560e46101005101526102a0610104610100510152526102c461010051016102c48460051b6101005101019382608051905b828210610d8c57505050505091610b8d60209492610ba69460018060a01b0316610124610100510152610124356101446101005101526101443561016461010051015233610184610100510152600319610100518203016101a461010051015260a05160e0516113d9565b91600319610100518403016101c46101005101526113d9565b6044356101e4610100510152606435610204610100510152608435610224610100510152600319610100518203016102446101005101528581520192608051945b808610610d60575050610c0d9350600319610100518403016102646101005101526113d9565b6101e435610284610100510152608051906101005190610100519003610100513460c0515af18015610d5357610d3f575b600554600160401b81101561078557806001610c5f92016005556005611297565b81549060031b9060c051821b9160018060a01b03901b191617905560c051608051526006602052604060805120600160ff19825416179055336080515260076020526040608051208054600160401b81101561078557610cc491600182018155611297565b81549060031b9060c051821b9160018060a01b03901b191617905560405160608152610cf86060820160a05160e0516113d9565b604435602083015260843560408301527f3f6fd3cc3f7089e8881a06c726de02a4deab7f48bfdb9406b9a68f52397b06ac33928060c051930390a3602060405160c0518152f35b610d4e608051610100516113a1565b610c3e565b6040513d608051823e3d90fd5b909384356001600160a01b038116919082900361026b5760208160019382935201950195019490610be7565b90919293956102c3196101005182030185528635601e198336030181121561026b578201906020823592019167ffffffffffffffff811161026b57803603831361026b57610de060209283926001956113d9565b9801950193920190610b22565b6330be1a3d60e21b608051526004608051fd5b60405162461bcd60e51b815260206004820152601960248201527f536574746c656d656e7420746f6b656e207265717569726564000000000000006044820152606490fd5b60405162461bcd60e51b815260206004820152601c60248201527f4174206c65617374203120737570706c696572207265717569726564000000006044820152606490fd5b60405162461bcd60e51b815260206004820152601a60248201527f72657665616c57696e646f77206d757374206265203e3d2031680000000000006044820152606490fd5b60405162461bcd60e51b815260206004820152601e60248201527f636c6f736554696d65206d757374206265203e206e6f77202b20356d696e00006044820152606490fd5b634e487b7160e01b6080515260116004526024608051fd5b63e2517d3f60e01b60805152336004526000805160206117d78339815191526024526044608051fd5b3461026b57604036600319011261026b57610f6e611281565b336001600160a01b03821603610f8a576102fc90600435611734565b63334bd91960e11b608051526004608051fd5b3461026b57604036600319011261026b576102fc600435610fbc611281565b90610fd86102f282600052600060205260016040600020015490565b611613565b3461026b57602036600319011261026b576001600160a01b03610ffe611266565b16608051526002602052602060ff60406080512054166040519015158152f35b3461026b57602036600319011261026b576001600160a01b0361103f611266565b16608051526003602052602060018060a01b036040608051205416604051908152f35b3461026b57602036600319011261026b57602061108f600435600052600060205260016040600020015490565b604051908152f35b3461026b57602036600319011261026b576110b0611266565b6110b86113fa565b60018060a01b03168060805152600160205260406080512060ff1981541690558060805152600260205260406080512060ff1981541690557f5f2c961a0db2d72fa01bfae36aaca642457678d9c63adaca86c8cb1b3d1230f4608051608051a260805180f35b3461026b57602036600319011261026b576102fc61113a611266565b6111426113fa565b61169e565b3461026b57602036600319011261026b576102fc611163611266565b61116b6113fa565b6114a7565b3461026b57602036600319011261026b576001600160a01b03611191611266565b16608051526001602052602060ff60406080512054166040519015158152f35b3461026b57604036600319011261026b576111ca611266565b6024359060018060a01b0316608051526007602052604060805120805482101561026b576020916111fa91611297565b905460405160039290921b1c6001600160a01b03168152f35b3461026b57602036600319011261026b576004359063ffffffff60e01b821680920361026b57602091637965db0b60e01b8114908115611255575b5015158152f35b6301ffc9a760e01b1490508361124e565b600435906001600160a01b038216820361127c57565b600080fd5b602435906001600160a01b038216820361127c57565b80548210156112af5760005260206000200190600090565b634e487b7160e01b600052603260045260246000fd5b9181601f8401121561127c5782359167ffffffffffffffff831161127c576020838186019501011161127c57565b9181601f8401121561127c5782359167ffffffffffffffff831161127c576020808501948460051b01011161127c57565b602060408183019282815284518094520192019060005b8181106113485750505090565b82516001600160a01b031684526020938401939092019160010161133b565b90600182811c92168015611397575b602083101461138157565b634e487b7160e01b600052602260045260246000fd5b91607f1691611376565b90601f8019910116810190811067ffffffffffffffff8211176113c357604052565b634e487b7160e01b600052604160045260246000fd5b908060209392818452848401376000828201840152601f01601f1916010190565b3360009081527f7d7ffb7a348e1c6a02869081a26547b49160dd3df72d1d75a570eb9b698292ec602052604090205460ff161561143357565b63e2517d3f60e01b600052336004527fa49807205ce4d355092ef5a8a18f56e8913cf4a201fbe287825b095693c2177560245260446000fd5b60008181526020818152604080832033845290915290205460ff161561148f5750565b63e2517d3f60e01b6000523360045260245260446000fd5b6001600160a01b03811660009081526000805160206117b7833981519152602052604090205460ff1661153f576001600160a01b031660008181526000805160206117b783398151915260205260408120805460ff191660011790553391906000805160206117d7833981519152907f2f8788117e7eff1d82e926ec794901d17c78024a50270940304540a733656f0d9080a4600190565b50600090565b6001600160a01b03811660009081527f7d7ffb7a348e1c6a02869081a26547b49160dd3df72d1d75a570eb9b698292ec602052604090205460ff1661153f576001600160a01b031660008181527f7d7ffb7a348e1c6a02869081a26547b49160dd3df72d1d75a570eb9b698292ec60205260408120805460ff191660011790553391907fa49807205ce4d355092ef5a8a18f56e8913cf4a201fbe287825b095693c21775907f2f8788117e7eff1d82e926ec794901d17c78024a50270940304540a733656f0d9080a4600190565b6000818152602081815260408083206001600160a01b038616845290915290205460ff16611697576000818152602081815260408083206001600160a01b0395909516808452949091528120805460ff19166001179055339291907f2f8788117e7eff1d82e926ec794901d17c78024a50270940304540a733656f0d9080a4600190565b5050600090565b6001600160a01b03811660009081526000805160206117b7833981519152602052604090205460ff161561153f576001600160a01b031660008181526000805160206117b783398151915260205260408120805460ff191690553391906000805160206117d7833981519152907ff6391f5c32d9c69d2a47ea670b442974b53935d1edc7fd64eb21e047a839171b9080a4600190565b6000818152602081815260408083206001600160a01b038616845290915290205460ff1615611697576000818152602081815260408083206001600160a01b0395909516808452949091528120805460ff19169055339291907ff6391f5c32d9c69d2a47ea670b442974b53935d1edc7fd64eb21e047a839171b9080a460019056fef3fa603c74bfe2a4719960e47343678c3dc690d2b27a2295acc6fc430833aaf9f8cd32ed93fc2f9fc78152a14807c9609af3d99c5fe4dc6b106a801aaddfe90ea26469706673582212205c6993416658745beb20600bec6c9e1b7b4d7be04e96f6dba3aece067494968a64736f6c634300081e00332f8788117e7eff1d82e926ec794901d17c78024a50270940304540a733656f0df3fa603c74bfe2a4719960e47343678c3dc690d2b27a2295acc6fc430833aaf97d7ffb7a348e1c6a02869081a26547b49160dd3df72d1d75a570eb9b698292ecad3228b676f7d3cd4284a5443f17f1962b36e491b30a40b2405849e597ba5fb5",
  "devdoc": {
    "errors": {
      "AccessControlBadConfirmation()": [
        {
          "details": "The caller of a function is not the expected one. NOTE: Don't confuse with {AccessControlUnauthorizedAccount}."
        }
      ],
      "AccessControlUnauthorizedAccount(address,bytes32)": [
        {
          "details": "The `account` is missing a role."
        }
      ],
      "ERC1167FailedCreateClone()": [
        {
          "details": "A clone instance deployment failed."
        }
      ]
    },
    "events": {
      "RoleAdminChanged(bytes32,bytes32,bytes32)": {
        "details": "Emitted when `newAdminRole` is set as ``role``'s admin role, replacing `previousAdminRole` `DEFAULT_ADMIN_ROLE` is the starting admin for all roles, despite {RoleAdminChanged} not being emitted signaling this."
      },
      "RoleGranted(bytes32,address,address)": {
        "details": "Emitted when `account` is granted `role`. `sender` is the account that originated the contract call, an admin role bearer except when using {AccessControl-_setupRole}."
      },
      "RoleRevoked(bytes32,address,address)": {
        "details": "Emitted when `account` is revoked `role`. `sender` is the account that originated the contract call:   - if using `revokeRole`, it is the admin role bearer   - if using `renounceRole`, it is the role bearer (i.e. `account`)"
      }
    },
    "kind": "dev",
    "methods": {
      "createVault(string,string,uint256,uint256,uint256,address[],string,address,bytes32,uint256,uint256,bool,string[],address,uint256,uint256)": {
        "params": {
          "_allowedJurisdictions": "Allowed jurisdiction codes (e.g. [\"UAE\", \"KSA\"])",
          "_allowedSuppliers": "Whitelisted supplier/bidder addresses",
          "_assetProofHash": "keccak256 of legal document / title deed",
          "_buyerECIESPubKey": "ECIES public key hex for encrypted off-chain bid data",
          "_closeTime": "Unix timestamp for bidding close (must be > now + 5min)",
          "_declaredAssetValue": "Declared value of the asset in wei (used for bond calc)",
          "_depositRequired": "Deposit amount in wei that each bidder must post",
          "_description": "Full description",
          "_oracle": "Oracle address that confirms real-world delivery",
          "_oracleTimeout": "Seconds for oracle to confirm delivery (default: 30d)",
          "_requiresAccreditation": "Whether bidders must be accredited investors",
          "_revealWindow": "Reveal window duration in seconds (min: 3600)",
          "_reviewWindowSeconds": "Seconds bidders must wait to review docs before bidding",
          "_settlementToken": "DDSC token address for settlement (must not be address(0))",
          "_settlementWindow": "Seconds for winner to submit payment (default: 48h)",
          "_title": "Auction title"
        }
      },
      "getRoleAdmin(bytes32)": {
        "details": "Returns the admin role that controls `role`. See {grantRole} and {revokeRole}. To change a role's admin, use {_setRoleAdmin}."
      },
      "grantRole(bytes32,address)": {
        "details": "Grants `role` to `account`. If `account` had not been already granted `role`, emits a {RoleGranted} event. Requirements: - the caller must have ``role``'s admin role. May emit a {RoleGranted} event."
      },
      "hasRole(bytes32,address)": {
        "details": "Returns `true` if `account` has been granted `role`."
      },
      "renounceRole(bytes32,address)": {
        "details": "Revokes `role` from the calling account. Roles are often managed via {grantRole} and {revokeRole}: this function's purpose is to provide a mechanism for accounts to lose their privileges if they are compromised (such as when a trusted device is misplaced). If the calling account had been revoked `role`, emits a {RoleRevoked} event. Requirements: - the caller must be `callerConfirmation`. May emit a {RoleRevoked} event."
      },
      "revokeRole(bytes32,address)": {
        "details": "Revokes `role` from `account`. If `account` had been granted `role`, emits a {RoleRevoked} event. Requirements: - the caller must have ``role``'s admin role. May emit a {RoleRevoked} event."
      },
      "supportsInterface(bytes4)": {
        "details": "See {IERC165-supportsInterface}."
      },
      "verifyInstitution(address,bool,string,bytes)": {
        "params": {
          "_jurisdiction": "ISO-3166 jurisdiction code (e.g. \"UAE\", \"GB\", \"SG\")",
          "accredited": "Whether the institution qualifies as an accredited investor",
          "inst": "Institution wallet address"
        }
      }
    },
    "stateVariables": {
      "vaultImpl": {
        "details": "Vault implementation deployed once; factory clones it (EIP-1167) per auction."
      }
    },
    "title": "ShadowBidFactory",
    "version": 1
  },
  "userdoc": {
    "kind": "user",
    "methods": {
      "createVault(string,string,uint256,uint256,uint256,address[],string,address,bytes32,uint256,uint256,bool,string[],address,uint256,uint256)": {
        "notice": "Create a new sealed-bid auction vault.         Creator must post a bond proportional to the declared asset value."
      },
      "revokeInstitution(address)": {
        "notice": "Revoke an institution's verification (e.g., sanctions hit on re-screening)."
      },
      "setAffiliated(address,address)": {
        "notice": "Record conflict-of-interest relationship for compliance enforcement."
      },
      "verifyInstitution(address,bool,string,bytes)": {
        "notice": "Mark an institution as KYB-verified after off-chain Sumsub review.         Called by the platform compliance team after review approval."
      }
    },
    "notice": "Deployed on ADI Chain  manages global KYB registry and creates ShadowBidVault instances GLOBAL KYB STATE: - verified: institutions that have passed KYB/AML checks via Sumsub - isAccredited: institutions certified as accredited investors - affiliatedWith: conflict-of-interest tracking (bidder => creator) ACCESS CONTROL: - ADMIN_ROLE: platform compliance team  can verify/revoke institutions - BUYER_ROLE: verified institutions that can create auctions",
    "version": 1
  },
  "storageLayout": {
    "storage": [
      {
        "astId": 26,
        "contract": "contracts/ShadowBidFactory.sol:ShadowBidFactory",
        "label": "_roles",
        "offset": 0,
        "slot": "0",
        "type": "t_mapping(t_bytes32,t_struct(RoleData)21_storage)"
      },
      {
        "astId": 3280,
        "contract": "contracts/ShadowBidFactory.sol:ShadowBidFactory",
        "label": "verified",
        "offset": 0,
        "slot": "1",
        "type": "t_mapping(t_address,t_bool)"
      },
      {
        "astId": 3284,
        "contract": "contracts/ShadowBidFactory.sol:ShadowBidFactory",
        "label": "isAccredited",
        "offset": 0,
        "slot": "2",
        "type": "t_mapping(t_address,t_bool)"
      },
      {
        "astId": 3288,
        "contract": "contracts/ShadowBidFactory.sol:ShadowBidFactory",
        "label": "affiliatedWith",
        "offset": 0,
        "slot": "3",
        "type": "t_mapping(t_address,t_address)"
      },
      {
        "astId": 3292,
        "contract": "contracts/ShadowBidFactory.sol:ShadowBidFactory",
        "label": "institutionJurisdiction",
        "offset": 0,
        "slot": "4",
        "type": "t_mapping(t_address,t_string_storage)"
      },
      {
        "astId": 3295,
        "contract": "contracts/ShadowBidFactory.sol:ShadowBidFactory",
        "label": "allVaults",
        "offset": 0,
        "slot": "5",
        "type": "t_array(t_address)dyn_storage"
      },
      {
        "astId": 3299,
        "contract": "contracts/ShadowBidFactory.sol:ShadowBidFactory",
        "label": "isVault",
        "offset": 0,
        "slot": "6",
        "type": "t_mapping(t_address,t_bool)"
      },
      {
        "astId": 3304,
        "contract": "contracts/ShadowBidFactory.sol:ShadowBidFactory",
        "label": "vaultsByBuyer",
        "offset": 0,
        "slot": "7",
        "type": "t_mapping(t_address,t_array(t_address)dyn_storage)"
      }
    ],
    "types": {
      "t_address": {
        "encoding": "inplace",
        "label": "address",
        "numberOfBytes": "20"
      },
      "t_array(t_address)dyn_storage": {
        "base": "t_address",
        "encoding": "dynamic_array",
        "label": "address[]",
        "numberOfBytes": "32"
      },
      "t_bool": {
        "encoding": "inplace",
        "label": "bool",
        "numberOfBytes": "1"
      },
      "t_bytes32": {
        "encoding": "inplace",
        "label": "bytes32",
        "numberOfBytes": "32"
      },
      "t_mapping(t_address,t_address)": {
        "encoding": "mapping",
        "key": "t_address",
        "label": "mapping(address => address)",
        "numberOfBytes": "32",
        "value": "t_address"
      },
      "t_mapping(t_address,t_array(t_address)dyn_storage)": {
        "encoding": "mapping",
        "key": "t_address",
        "label": "mapping(address => address[])",
        "numberOfBytes": "32",
        "value": "t_array(t_address)dyn_storage"
      },
      "t_mapping(t_address,t_bool)": {
        "encoding": "mapping",
        "key": "t_address",
        "label": "mapping(address => bool)",
        "numberOfBytes": "32",
        "value": "t_bool"
      },
      "t_mapping(t_address,t_string_storage)": {
        "encoding": "mapping",
        "key": "t_address",
        "label": "mapping(address => string)",
        "numberOfBytes": "32",
        "value": "t_string_storage"
      },
      "t_mapping(t_bytes32,t_struct(RoleData)21_storage)": {
        "encoding": "mapping",
        "key": "t_bytes32",
        "label": "mapping(bytes32 => struct AccessControl.RoleData)",
        "numberOfBytes": "32",
        "value": "t_struct(RoleData)21_storage"
      },
      "t_string_storage": {
        "encoding": "bytes",
        "label": "string",
        "numberOfBytes": "32"
      },
      "t_struct(RoleData)21_storage": {
        "encoding": "inplace",
        "label": "struct AccessControl.RoleData",
        "members": [
          {
            "astId": 18,
            "contract": "contracts/ShadowBidFactory.sol:ShadowBidFactory",
            "label": "hasRole",
            "offset": 0,
            "slot": "0",
            "type": "t_mapping(t_address,t_bool)"
          },
          {
            "astId": 20,
            "contract": "contracts/ShadowBidFactory.sol:ShadowBidFactory",
            "label": "adminRole",
            "offset": 0,
            "slot": "1",
            "type": "t_bytes32"
          }
        ],
        "numberOfBytes": "64"
      }
    }
  }
}